{
  "contractName": "Election",
  "abi": [
    {
      "constant": true,
      "inputs": [],
      "name": "candidatesCount",
      "outputs": [
        {
          "name": "",
          "type": "uint256"
        }
      ],
      "payable": false,
      "stateMutability": "view",
      "type": "function"
    },
    {
      "constant": true,
      "inputs": [
        {
          "name": "",
          "type": "uint256"
        }
      ],
      "name": "candidates",
      "outputs": [
        {
          "name": "id",
          "type": "uint256"
        },
        {
          "name": "name",
          "type": "string"
        },
        {
          "name": "voteCount",
          "type": "uint256"
        }
      ],
      "payable": false,
      "stateMutability": "view",
      "type": "function"
    },
    {
      "constant": true,
      "inputs": [
        {
          "name": "",
          "type": "uint256"
        }
      ],
      "name": "hosts",
      "outputs": [
        {
          "name": "id",
          "type": "uint256"
        },
        {
          "name": "hostDescription",
          "type": "string"
        },
        {
          "name": "hostCount",
          "type": "uint256"
        }
      ],
      "payable": false,
      "stateMutability": "view",
      "type": "function"
    },
    {
      "constant": true,
      "inputs": [
        {
          "name": "",
          "type": "address"
        }
      ],
      "name": "voters",
      "outputs": [
        {
          "name": "",
          "type": "bool"
        }
      ],
      "payable": false,
      "stateMutability": "view",
      "type": "function"
    },
    {
      "constant": true,
      "inputs": [],
      "name": "hostsCount",
      "outputs": [
        {
          "name": "",
          "type": "uint256"
        }
      ],
      "payable": false,
      "stateMutability": "view",
      "type": "function"
    },
    {
      "inputs": [],
      "payable": false,
      "stateMutability": "nonpayable",
      "type": "constructor"
    },
    {
      "anonymous": false,
      "inputs": [
        {
          "indexed": false,
          "name": "indexed_candidateId",
          "type": "uint256"
        }
      ],
      "name": "votedEvent",
      "type": "event"
    },
    {
      "constant": false,
      "inputs": [
        {
          "name": "_candidateId",
          "type": "uint256"
        }
      ],
      "name": "vote",
      "outputs": [],
      "payable": false,
      "stateMutability": "nonpayable",
      "type": "function"
    }
  ],
  "bytecode": "0x608060405234801561001057600080fd5b5061005e6040805190810160405280600881526020017f30202d203130303000000000000000000000000000000000000000000000000081525061038c640100000000026401000000009004565b6100ab6040805190810160405280600b81526020017f31303031202d203230303000000000000000000000000000000000000000000081525061038c640100000000026401000000009004565b6100f86040805190810160405280600b81526020017f32303031202d203330303000000000000000000000000000000000000000000081525061038c640100000000026401000000009004565b6101456040805190810160405280600b81526020017f33303031202d203430303000000000000000000000000000000000000000000081525061038c640100000000026401000000009004565b6101926040805190810160405280600b81526020017f34303031202d203530303000000000000000000000000000000000000000000081525061038c640100000000026401000000009004565b6101df6040805190810160405280600b81526020017f35303031202d203630303000000000000000000000000000000000000000000081525061038c640100000000026401000000009004565b61022c6040805190810160405280600b81526020017f36303031202d203730303000000000000000000000000000000000000000000081525061038c640100000000026401000000009004565b6102796040805190810160405280600b81526020017f37303031202d203830303000000000000000000000000000000000000000000081525061038c640100000000026401000000009004565b6102c66040805190810160405280600b81526020017f38303031202d203930303000000000000000000000000000000000000000000081525061038c640100000000026401000000009004565b6103136040805190810160405280600c81526020017f39303031202d203130303030000000000000000000000000000000000000000081525061038c640100000000026401000000009004565b610387606060405190810160405280603381526020017fe38193e381aee59586e59381e381aee99c80e8a681e9878fe38292e4ba88e6b881526020017face38197e381a6e3818fe381a0e38195e3818400000000000000000000000000815250610409640100000000026401000000009004565b61052b565b600360008154809291906001019190505550606060405190810160405280600354815260200182815260200160008152506001600060035481526020019081526020016000206000820151816000015560208201518160010190805190602001906103f8929190610486565b506040820151816002015590505050565b60046000815480929190600101919050555060606040519081016040528060045481526020018281526020016000815250600260006004548152602001908152602001600020600082015181600001556020820151816001019080519060200190610475929190610486565b506040820151816002015590505050565b828054600181600116156101000203166002900490600052602060002090601f016020900481019282601f106104c757805160ff19168380011785556104f5565b828001600101855582156104f5579182015b828111156104f45782518255916020019190600101906104d9565b5b5090506105029190610506565b5090565b61052891905b8082111561052457600081600090555060010161050c565b5090565b90565b6105cb8061053a6000396000f300608060405260043610610078576000357c0100000000000000000000000000000000000000000000000000000000900463ffffffff1680630121b93f1461007d5780632d35a8a2146100aa5780633477ee2e146100d55780633735b3c614610189578063a3ec138d1461023d578063eed8de6c14610298575b600080fd5b34801561008957600080fd5b506100a8600480360381019080803590602001909291905050506102c3565b005b3480156100b657600080fd5b506100bf6103ef565b6040518082815260200191505060405180910390f35b3480156100e157600080fd5b50610100600480360381019080803590602001909291905050506103f5565b6040518084815260200180602001838152602001828103825284818151815260200191508051906020019080838360005b8381101561014c578082015181840152602081019050610131565b50505050905090810190601f1680156101795780820380516001836020036101000a031916815260200191505b5094505050505060405180910390f35b34801561019557600080fd5b506101b4600480360381019080803590602001909291905050506104b7565b6040518084815260200180602001838152602001828103825284818151815260200191508051906020019080838360005b838110156102005780820151818401526020810190506101e5565b50505050905090810190601f16801561022d5780820380516001836020036101000a031916815260200191505b5094505050505060405180910390f35b34801561024957600080fd5b5061027e600480360381019080803573ffffffffffffffffffffffffffffffffffffffff169060200190929190505050610579565b604051808215151515815260200191505060405180910390f35b3480156102a457600080fd5b506102ad610599565b6040518082815260200191505060405180910390f35b6000803373ffffffffffffffffffffffffffffffffffffffff1673ffffffffffffffffffffffffffffffffffffffff16815260200190815260200160002060009054906101000a900460ff1615151561031b57600080fd5b60008111801561032d57506003548111155b151561033857600080fd5b60016000803373ffffffffffffffffffffffffffffffffffffffff1673ffffffffffffffffffffffffffffffffffffffff16815260200190815260200160002060006101000a81548160ff02191690831515021790555060016000828152602001908152602001600020600201600081548092919060010191905055507ffff3c900d938d21d0990d786e819f29b8d05c1ef587b462b939609625b684b16816040518082815260200191505060405180910390a150565b60035481565b6001602052806000526040600020600091509050806000015490806001018054600181600116156101000203166002900480601f0160208091040260200160405190810160405280929190818152602001828054600181600116156101000203166002900480156104a75780601f1061047c576101008083540402835291602001916104a7565b820191906000526020600020905b81548152906001019060200180831161048a57829003601f168201915b5050505050908060020154905083565b6002602052806000526040600020600091509050806000015490806001018054600181600116156101000203166002900480601f0160208091040260200160405190810160405280929190818152602001828054600181600116156101000203166002900480156105695780601f1061053e57610100808354040283529160200191610569565b820191906000526020600020905b81548152906001019060200180831161054c57829003601f168201915b5050505050908060020154905083565b60006020528060005260406000206000915054906101000a900460ff1681565b600454815600a165627a7a72305820b94e9f56c3e70ca83c770c44227be00ff82dece6b3454451502f3bc62b9af58e0029",
  "source": "pragma solidity ^0.4.24;\n\ncontract Election {\n\n    struct Candidate {\n        uint id;\n        string name;\n        uint voteCount;\n    }\n\n    struct Host {\n        uint id;\n        string hostDescription;\n        uint hostCount;\n    }\n    \n    mapping(address => bool) public voters;\n\n    mapping(uint => Candidate) public candidates;\n    mapping(uint => Host) public hosts;\n\n    uint public candidatesCount;\n    uint public hostsCount;\n\n    event votedEvent (\n        uint indexed_candidateId\n    );\n\n    constructor() public {\n        addCandidate(\"0 - 1000\");\n        addCandidate(\"1001 - 2000\");\n        addCandidate(\"2001 - 3000\");\n        addCandidate(\"3001 - 4000\");\n        addCandidate(\"4001 - 5000\");\n        addCandidate(\"5001 - 6000\");\n        addCandidate(\"6001 - 7000\");\n        addCandidate(\"7001 - 8000\");\n        addCandidate(\"8001 - 9000\");\n        addCandidate(\"9001 - 10000\");\n        addHost(\"この商品の需要量を予測してください\");\n    }\n\n    function addCandidate (string _name) private {\n        candidatesCount ++;\n        candidates[candidatesCount] = Candidate(candidatesCount, _name, 0);\n    }\n\n    function addHost (string _description) private {\n        hostsCount ++;\n        hosts[hostsCount] = Host(hostsCount, _description, 0);\n    }\n\n    function vote (uint _candidateId) public {\n        //require\n        require(!voters[msg.sender]);\n        //require\n        require(_candidateId > 0 && _candidateId <= candidatesCount);\n        //record that voter has voted\n        voters[msg.sender] = true;\n        //update candidate vote Count\n        candidates[_candidateId].voteCount ++;\n\n        votedEvent(_candidateId);\n    }\n}",
  "sourcePath": "/Users/kondoumitsurushin/Documents/develop/election/contracts/Election.sol",
  "compiler": {
    "name": "solc",
    "version": "0.4.24+commit.e67f0147.Emscripten.clang"
  },
  "schemaVersion": "2.0.1",
  "updatedAt": "2018-11-20T02:40:53.244Z"
}