{
  "contractName": "Election",
  "abi": [
    {
      "constant": true,
      "inputs": [
        {
          "name": "",
          "type": "uint256"
        }
      ],
      "name": "hosts",
      "outputs": [
        {
          "name": "id",
          "type": "uint256"
        },
        {
          "name": "sender",
          "type": "address"
        },
        {
          "name": "title",
          "type": "string"
        },
        {
          "name": "description",
          "type": "string"
        },
        {
          "name": "image",
          "type": "string"
        },
        {
          "name": "reward",
          "type": "string"
        },
        {
          "name": "end",
          "type": "uint256"
        },
        {
          "name": "minValue",
          "type": "uint256"
        },
        {
          "name": "maxValue",
          "type": "uint256"
        }
      ],
      "payable": false,
      "stateMutability": "view",
      "type": "function"
    },
    {
      "constant": true,
      "inputs": [
        {
          "name": "",
          "type": "uint256"
        }
      ],
      "name": "votes",
      "outputs": [
        {
          "name": "id",
          "type": "uint256"
        },
        {
          "name": "sender",
          "type": "address"
        },
        {
          "name": "level",
          "type": "uint256"
        },
        {
          "name": "value",
          "type": "uint256"
        },
        {
          "name": "hostId",
          "type": "uint256"
        },
        {
          "name": "when",
          "type": "uint256"
        }
      ],
      "payable": false,
      "stateMutability": "view",
      "type": "function"
    },
    {
      "constant": true,
      "inputs": [],
      "name": "votesCount",
      "outputs": [
        {
          "name": "",
          "type": "uint256"
        }
      ],
      "payable": false,
      "stateMutability": "view",
      "type": "function"
    },
    {
      "constant": true,
      "inputs": [],
      "name": "hostsCount",
      "outputs": [
        {
          "name": "",
          "type": "uint256"
        }
      ],
      "payable": false,
      "stateMutability": "view",
      "type": "function"
    },
    {
      "inputs": [],
      "payable": false,
      "stateMutability": "nonpayable",
      "type": "constructor"
    },
    {
      "constant": false,
      "inputs": [
        {
          "name": "_level",
          "type": "uint256"
        },
        {
          "name": "_value",
          "type": "uint256"
        },
        {
          "name": "_hostId",
          "type": "uint256"
        }
      ],
      "name": "vote",
      "outputs": [],
      "payable": false,
      "stateMutability": "nonpayable",
      "type": "function"
    },
    {
      "constant": false,
      "inputs": [
        {
          "name": "_title",
          "type": "string"
        },
        {
          "name": "_description",
          "type": "string"
        },
        {
          "name": "_image",
          "type": "string"
        },
        {
          "name": "_reward",
          "type": "string"
        },
        {
          "name": "_biddingTime",
          "type": "uint256"
        },
        {
          "name": "_minValue",
          "type": "uint256"
        },
        {
          "name": "_maxValue",
          "type": "uint256"
        }
      ],
      "name": "host",
      "outputs": [],
      "payable": false,
      "stateMutability": "nonpayable",
      "type": "function"
    },
    {
      "constant": true,
      "inputs": [
        {
          "name": "_id",
          "type": "uint256"
        }
      ],
      "name": "getVote",
      "outputs": [
        {
          "name": "",
          "type": "uint256"
        },
        {
          "name": "",
          "type": "address"
        },
        {
          "name": "",
          "type": "uint256"
        },
        {
          "name": "",
          "type": "uint256"
        },
        {
          "name": "",
          "type": "uint256"
        },
        {
          "name": "",
          "type": "uint256"
        }
      ],
      "payable": false,
      "stateMutability": "view",
      "type": "function"
    }
  ],
  "bytecode": "0x60806040523480156200001157600080fd5b50620001186040805190810160405280600c81526020017fe887aae58b95e7949fe688900000000000000000000000000000000000000000815250606060405190810160405280603381526020017fe38193e381aee59586e59381e381aee99c80e8a681e9878fe38292e4ba88e6b881526020017face38197e381a6e3818fe381a0e38195e38184000000000000000000000000008152506101206040519081016040528060ed8152602001620010e060ed91396040805190810160405280601081526020017fe5a0b1e985ace382bfe382a4e38397410000000000000000000000000000000081525061271060646127106200011e640100000000026401000000009004565b6200034d565b600060036000815480929190600101919050555083420190506101206040519081016040528060035481526020013373ffffffffffffffffffffffffffffffffffffffff168152602001898152602001888152602001878152602001868152602001828152602001848152602001838152506001600060035481526020019081526020016000206000820151816000015560208201518160010160006101000a81548173ffffffffffffffffffffffffffffffffffffffff021916908373ffffffffffffffffffffffffffffffffffffffff1602179055506040820151816002019080519060200190620002149291906200029e565b506060820151816003019080519060200190620002339291906200029e565b506080820151816004019080519060200190620002529291906200029e565b5060a0820151816005019080519060200190620002719291906200029e565b5060c0820151816006015560e0820151816007015561010082015181600801559050505050505050505050565b828054600181600116156101000203166002900490600052602060002090601f016020900481019282601f10620002e157805160ff191683800117855562000312565b8280016001018555821562000312579182015b8281111562000311578251825591602001919060010190620002f4565b5b50905062000321919062000325565b5090565b6200034a91905b80821115620003465760008160009055506001016200032c565b5090565b90565b610d83806200035d6000396000f300608060405260043610610083576000357c0100000000000000000000000000000000000000000000000000000000900463ffffffff1680633735b3c6146100885780635a55c1f0146102c15780635df81330146103515780638778b27d146103e1578063886b58551461040c5780638a6655d614610565578063eed8de6c146105a6575b600080fd5b34801561009457600080fd5b506100b3600480360381019080803590602001909291905050506105d1565b604051808a81526020018973ffffffffffffffffffffffffffffffffffffffff1673ffffffffffffffffffffffffffffffffffffffff1681526020018060200180602001806020018060200188815260200187815260200186815260200185810385528c818151815260200191508051906020019080838360005b8381101561014957808201518184015260208101905061012e565b50505050905090810190601f1680156101765780820380516001836020036101000a031916815260200191505b5085810384528b818151815260200191508051906020019080838360005b838110156101af578082015181840152602081019050610194565b50505050905090810190601f1680156101dc5780820380516001836020036101000a031916815260200191505b5085810383528a818151815260200191508051906020019080838360005b838110156102155780820151818401526020810190506101fa565b50505050905090810190601f1680156102425780820380516001836020036101000a031916815260200191505b50858103825289818151815260200191508051906020019080838360005b8381101561027b578082015181840152602081019050610260565b50505050905090810190601f1680156102a85780820380516001836020036101000a031916815260200191505b509d505050505050505050505050505060405180910390f35b3480156102cd57600080fd5b506102ec6004803603810190808035906020019092919050505061089f565b604051808781526020018673ffffffffffffffffffffffffffffffffffffffff1673ffffffffffffffffffffffffffffffffffffffff168152602001858152602001848152602001838152602001828152602001965050505050505060405180910390f35b34801561035d57600080fd5b5061037c60048036038101908080359060200190929190505050610988565b604051808781526020018673ffffffffffffffffffffffffffffffffffffffff1673ffffffffffffffffffffffffffffffffffffffff168152602001858152602001848152602001838152602001828152602001965050505050505060405180910390f35b3480156103ed57600080fd5b506103f66109e4565b6040518082815260200191505060405180910390f35b34801561041857600080fd5b50610563600480360381019080803590602001908201803590602001908080601f0160208091040260200160405190810160405280939291908181526020018383808284378201915050505050509192919290803590602001908201803590602001908080601f0160208091040260200160405190810160405280939291908181526020018383808284378201915050505050509192919290803590602001908201803590602001908080601f0160208091040260200160405190810160405280939291908181526020018383808284378201915050505050509192919290803590602001908201803590602001908080601f01602080910402602001604051908101604052809392919081815260200183838082843782019150505050505091929192908035906020019092919080359060200190929190803590602001909291905050506109ea565b005b34801561057157600080fd5b506105a4600480360381019080803590602001909291908035906020019092919080359060200190929190505050610b62565b005b3480156105b257600080fd5b506105bb610c5f565b6040518082815260200191505060405180910390f35b60016020528060005260406000206000915090508060000154908060010160009054906101000a900473ffffffffffffffffffffffffffffffffffffffff1690806002018054600181600116156101000203166002900480601f0160208091040260200160405190810160405280929190818152602001828054600181600116156101000203166002900480156106a95780601f1061067e576101008083540402835291602001916106a9565b820191906000526020600020905b81548152906001019060200180831161068c57829003601f168201915b505050505090806003018054600181600116156101000203166002900480601f0160208091040260200160405190810160405280929190818152602001828054600181600116156101000203166002900480156107475780601f1061071c57610100808354040283529160200191610747565b820191906000526020600020905b81548152906001019060200180831161072a57829003601f168201915b505050505090806004018054600181600116156101000203166002900480601f0160208091040260200160405190810160405280929190818152602001828054600181600116156101000203166002900480156107e55780601f106107ba576101008083540402835291602001916107e5565b820191906000526020600020905b8154815290600101906020018083116107c857829003601f168201915b505050505090806005018054600181600116156101000203166002900480601f0160208091040260200160405190810160405280929190818152602001828054600181600116156101000203166002900480156108835780601f1061085857610100808354040283529160200191610883565b820191906000526020600020905b81548152906001019060200180831161086657829003601f168201915b5050505050908060060154908060070154908060080154905089565b6000806000806000806108b0610c65565b60008089815260200190815260200160002060c06040519081016040529081600082015481526020016001820160009054906101000a900473ffffffffffffffffffffffffffffffffffffffff1673ffffffffffffffffffffffffffffffffffffffff1673ffffffffffffffffffffffffffffffffffffffff16815260200160028201548152602001600382015481526020016004820154815260200160058201548152505090508781602001518260400151836060015184608001518560a001519650965096509650965096505091939550919395565b60006020528060005260406000206000915090508060000154908060010160009054906101000a900473ffffffffffffffffffffffffffffffffffffffff16908060020154908060030154908060040154908060050154905086565b60025481565b600060036000815480929190600101919050555083420190506101206040519081016040528060035481526020013373ffffffffffffffffffffffffffffffffffffffff168152602001898152602001888152602001878152602001868152602001828152602001848152602001838152506001600060035481526020019081526020016000206000820151816000015560208201518160010160006101000a81548173ffffffffffffffffffffffffffffffffffffffff021916908373ffffffffffffffffffffffffffffffffffffffff1602179055506040820151816002019080519060200190610ade929190610cb2565b506060820151816003019080519060200190610afb929190610cb2565b506080820151816004019080519060200190610b18929190610cb2565b5060a0820151816005019080519060200190610b35929190610cb2565b5060c0820151816006015560e0820151816007015561010082015181600801559050505050505050505050565b60008214151515610b7257600080fd5b60026000815480929190600101919050555060c06040519081016040528060025481526020013373ffffffffffffffffffffffffffffffffffffffff1681526020018481526020018381526020018281526020014281525060008060025481526020019081526020016000206000820151816000015560208201518160010160006101000a81548173ffffffffffffffffffffffffffffffffffffffff021916908373ffffffffffffffffffffffffffffffffffffffff16021790555060408201518160020155606082015181600301556080820151816004015560a08201518160050155905050505050565b60035481565b60c06040519081016040528060008152602001600073ffffffffffffffffffffffffffffffffffffffff168152602001600081526020016000815260200160008152602001600081525090565b828054600181600116156101000203166002900490600052602060002090601f016020900481019282601f10610cf357805160ff1916838001178555610d21565b82800160010185558215610d21579182015b82811115610d20578251825591602001919060010190610d05565b5b509050610d2e9190610d32565b5090565b610d5491905b80821115610d50576000816000905550600101610d38565b5090565b905600a165627a7a72305820d2efedf02338894186cf8407afabceaf122cdef41708c7ee427f7ab458f067b1002968747470733a2f2f7777772e6765747479696d616765732e636f2e6a702f64657461696c2f2545332538322541342545332538332541392545332538322542392545332538332538382f77617465722d626f74746c65732d696c6c757374726174696f6e2d2545332538332541442545332538322541342545332538332541342545332538332541412545332538332538362545332538322541332545332538332539352545332538332541412545332538332542432545332538312541452545332538322541342545332538332541392545332538322542392545332538332538382f363337373533333132",
  "source": "pragma solidity ^0.4.24;\n\ncontract Election {\n\n    struct Vote {\n        uint id;\n        address sender;\n        uint level;\n        uint value;\n        uint hostId;\n        uint when;\n    }\n\n    struct Host {\n        uint id;\n        address sender;\n        string title;\n        string description;\n        string image;\n        string reward;\n        uint end;\n        uint minValue;\n        uint maxValue;\n    }\n\n    mapping(uint => Vote) public votes;\n\n    mapping(uint => Host) public hosts;\n\n    uint public votesCount;\n\n    uint public hostsCount;\n\n    constructor() public {\n        host(\n            \"自動生成\",\n            \"この商品の需要量を予測してください\",\n            \"https://www.gettyimages.co.jp/detail/%E3%82%A4%E3%83%A9%E3%82%B9%E3%83%88/water-bottles-illustration-%E3%83%AD%E3%82%A4%E3%83%A4%E3%83%AA%E3%83%86%E3%82%A3%E3%83%95%E3%83%AA%E3%83%BC%E3%81%AE%E3%82%A4%E3%83%A9%E3%82%B9%E3%83%88/637753312\",\n            \"報酬タイプA\",\n            10000,\n            100,\n            10000\n        );\n    }\n\n    function vote(uint _level, uint _value, uint _hostId) public {\n        require(_value != 0);\n        votesCount ++;\n        votes[votesCount] = Vote(votesCount, msg.sender, _level, _value, _hostId, block.timestamp);\n    }\n\n    function host(string memory _title, string memory _description, string memory _image, string memory _reward, uint _biddingTime, uint _minValue, uint _maxValue) public {\n        hostsCount ++;\n        uint end = now + _biddingTime;\n        hosts[hostsCount] = Host(hostsCount, msg.sender, _title, _description, _image, _reward, end, _minValue, _maxValue);\n    }\n\n    function getVote(uint _id) public view returns (uint, address, uint, uint, uint, uint) {\n        Vote memory vote = votes[_id];\n        return (_id, vote.sender, vote.level, vote.value, vote.hostId, vote.when);\n    }\n\n    // function getHost(uint _id) public view returns (uint, address, string, string, string, uint) {\n    //     Host memory host = hosts[_id];\n    //     return (_id, host.sender, host.title, host.description, host.reward, host.end);\n    // }\n\n    // function addVote (string _name) private {\n    //     candidatesCount ++;\n    //     candidates[candidatesCount] = Vote(candidatesCount, _name, 0);\n    // }\n\n    // function vote (uint _candidateId) public {\n    //     //require\n    //     require(!voters[msg.sender]);\n    //     //require\n    //     require(_candidateId > 0 && _candidateId <= candidatesCount);\n    //     //record that voter has voted\n    //     voters[msg.sender] = true;\n    //     //update candidate vote Count\n    //     votes[_candidateId].voteCount ++;\n\n    //     votedEvent(_candidateId);\n    // }\n}",
  "sourcePath": "/Users/kondoumitsurushin/Documents/develop/election/contracts/Election.sol",
  "compiler": {
    "name": "solc",
    "version": "0.4.24+commit.e67f0147.Emscripten.clang"
  },
  "schemaVersion": "2.0.1",
  "updatedAt": "2018-12-15T10:19:22.967Z"
}