{
  "contractName": "Election",
  "abi": [
    {
      "constant": true,
      "inputs": [
        {
          "name": "",
          "type": "uint256"
        }
      ],
      "name": "hosts",
      "outputs": [
        {
          "name": "id",
          "type": "uint256"
        },
        {
          "name": "sender",
          "type": "address"
        },
        {
          "name": "title",
          "type": "string"
        },
        {
          "name": "description",
          "type": "string"
        },
        {
          "name": "reward",
          "type": "string"
        }
      ],
      "payable": false,
      "stateMutability": "view",
      "type": "function"
    },
    {
      "constant": true,
      "inputs": [
        {
          "name": "",
          "type": "uint256"
        }
      ],
      "name": "votes",
      "outputs": [
        {
          "name": "id",
          "type": "uint256"
        },
        {
          "name": "sender",
          "type": "address"
        },
        {
          "name": "value",
          "type": "uint256"
        },
        {
          "name": "hostId",
          "type": "uint256"
        }
      ],
      "payable": false,
      "stateMutability": "view",
      "type": "function"
    },
    {
      "constant": true,
      "inputs": [],
      "name": "votesCount",
      "outputs": [
        {
          "name": "",
          "type": "uint256"
        }
      ],
      "payable": false,
      "stateMutability": "view",
      "type": "function"
    },
    {
      "constant": true,
      "inputs": [
        {
          "name": "",
          "type": "address"
        }
      ],
      "name": "voters",
      "outputs": [
        {
          "name": "",
          "type": "bool"
        }
      ],
      "payable": false,
      "stateMutability": "view",
      "type": "function"
    },
    {
      "constant": true,
      "inputs": [],
      "name": "hostsCount",
      "outputs": [
        {
          "name": "",
          "type": "uint256"
        }
      ],
      "payable": false,
      "stateMutability": "view",
      "type": "function"
    },
    {
      "inputs": [],
      "payable": false,
      "stateMutability": "nonpayable",
      "type": "constructor"
    },
    {
      "anonymous": false,
      "inputs": [
        {
          "indexed": true,
          "name": "_voteId",
          "type": "uint256"
        }
      ],
      "name": "votedEvent",
      "type": "event"
    },
    {
      "constant": false,
      "inputs": [
        {
          "name": "_value",
          "type": "uint256"
        },
        {
          "name": "_hostId",
          "type": "uint256"
        }
      ],
      "name": "vote",
      "outputs": [],
      "payable": false,
      "stateMutability": "nonpayable",
      "type": "function"
    },
    {
      "constant": false,
      "inputs": [
        {
          "name": "_title",
          "type": "string"
        },
        {
          "name": "_description",
          "type": "string"
        },
        {
          "name": "_reward",
          "type": "string"
        }
      ],
      "name": "host",
      "outputs": [],
      "payable": false,
      "stateMutability": "nonpayable",
      "type": "function"
    }
  ],
  "bytecode": "0x608060405234801561001057600080fd5b506100f16040805190810160405280600c81526020017fe887aae58b95e7949fe688900000000000000000000000000000000000000000815250606060405190810160405280603381526020017fe38193e381aee59586e59381e381aee99c80e8a681e9878fe38292e4ba88e6b881526020017face38197e381a6e3818fe381a0e38195e38184000000000000000000000000008152506040805190810160405280601081526020017fe5a0b1e985ace382bfe382a4e3839741000000000000000000000000000000008152506100f6640100000000026401000000009004565b6102b2565b60046000815480929190600101919050555060a06040519081016040528060045481526020013373ffffffffffffffffffffffffffffffffffffffff168152602001848152602001838152602001828152506002600060045481526020019081526020016000206000820151816000015560208201518160010160006101000a81548173ffffffffffffffffffffffffffffffffffffffff021916908373ffffffffffffffffffffffffffffffffffffffff16021790555060408201518160020190805190602001906101ca92919061020d565b5060608201518160030190805190602001906101e792919061020d565b50608082015181600401908051906020019061020492919061020d565b50905050505050565b828054600181600116156101000203166002900490600052602060002090601f016020900481019282601f1061024e57805160ff191683800117855561027c565b8280016001018555821561027c579182015b8281111561027b578251825591602001919060010190610260565b5b509050610289919061028d565b5090565b6102af91905b808211156102ab576000816000905550600101610293565b5090565b90565b610a2b806102c16000396000f300608060405260043610610083576000357c0100000000000000000000000000000000000000000000000000000000900463ffffffff1680632f564a90146100885780633735b3c61461017d5780635df81330146103355780638778b27d146103b7578063a3ec138d146103e2578063b384abef1461043d578063eed8de6c14610474575b600080fd5b34801561009457600080fd5b5061017b600480360381019080803590602001908201803590602001908080601f0160208091040260200160405190810160405280939291908181526020018383808284378201915050505050509192919290803590602001908201803590602001908080601f0160208091040260200160405190810160405280939291908181526020018383808284378201915050505050509192919290803590602001908201803590602001908080601f016020809104026020016040519081016040528093929190818152602001838380828437820191505050505050919291929050505061049f565b005b34801561018957600080fd5b506101a8600480360381019080803590602001909291905050506105b6565b604051808681526020018573ffffffffffffffffffffffffffffffffffffffff1673ffffffffffffffffffffffffffffffffffffffff168152602001806020018060200180602001848103845287818151815260200191508051906020019080838360005b8381101561022857808201518184015260208101905061020d565b50505050905090810190601f1680156102555780820380516001836020036101000a031916815260200191505b50848103835286818151815260200191508051906020019080838360005b8381101561028e578082015181840152602081019050610273565b50505050905090810190601f1680156102bb5780820380516001836020036101000a031916815260200191505b50848103825285818151815260200191508051906020019080838360005b838110156102f45780820151818401526020810190506102d9565b50505050905090810190601f1680156103215780820380516001836020036101000a031916815260200191505b509850505050505050505060405180910390f35b34801561034157600080fd5b50610360600480360381019080803590602001909291905050506107d4565b604051808581526020018473ffffffffffffffffffffffffffffffffffffffff1673ffffffffffffffffffffffffffffffffffffffff16815260200183815260200182815260200194505050505060405180910390f35b3480156103c357600080fd5b506103cc610824565b6040518082815260200191505060405180910390f35b3480156103ee57600080fd5b50610423600480360381019080803573ffffffffffffffffffffffffffffffffffffffff16906020019092919050505061082a565b604051808215151515815260200191505060405180910390f35b34801561044957600080fd5b50610472600480360381019080803590602001909291908035906020019092919050505061084a565b005b34801561048057600080fd5b50610489610954565b6040518082815260200191505060405180910390f35b60046000815480929190600101919050555060a06040519081016040528060045481526020013373ffffffffffffffffffffffffffffffffffffffff168152602001848152602001838152602001828152506002600060045481526020019081526020016000206000820151816000015560208201518160010160006101000a81548173ffffffffffffffffffffffffffffffffffffffff021916908373ffffffffffffffffffffffffffffffffffffffff160217905550604082015181600201908051906020019061057392919061095a565b50606082015181600301908051906020019061059092919061095a565b5060808201518160040190805190602001906105ad92919061095a565b50905050505050565b60026020528060005260406000206000915090508060000154908060010160009054906101000a900473ffffffffffffffffffffffffffffffffffffffff1690806002018054600181600116156101000203166002900480601f01602080910402602001604051908101604052809291908181526020018280546001816001161561010002031660029004801561068e5780601f106106635761010080835404028352916020019161068e565b820191906000526020600020905b81548152906001019060200180831161067157829003601f168201915b505050505090806003018054600181600116156101000203166002900480601f01602080910402602001604051908101604052809291908181526020018280546001816001161561010002031660029004801561072c5780601f106107015761010080835404028352916020019161072c565b820191906000526020600020905b81548152906001019060200180831161070f57829003601f168201915b505050505090806004018054600181600116156101000203166002900480601f0160208091040260200160405190810160405280929190818152602001828054600181600116156101000203166002900480156107ca5780601f1061079f576101008083540402835291602001916107ca565b820191906000526020600020905b8154815290600101906020018083116107ad57829003601f168201915b5050505050905085565b60016020528060005260406000206000915090508060000154908060010160009054906101000a900473ffffffffffffffffffffffffffffffffffffffff16908060020154908060030154905084565b60035481565b60006020528060005260406000206000915054906101000a900460ff1681565b6000821415151561085a57600080fd5b60036000815480929190600101919050555060806040519081016040528060035481526020013373ffffffffffffffffffffffffffffffffffffffff168152602001838152602001828152506001600060035481526020019081526020016000206000820151816000015560208201518160010160006101000a81548173ffffffffffffffffffffffffffffffffffffffff021916908373ffffffffffffffffffffffffffffffffffffffff1602179055506040820151816002015560608201518160030155905050817ffff3c900d938d21d0990d786e819f29b8d05c1ef587b462b939609625b684b1660405160405180910390a25050565b60045481565b828054600181600116156101000203166002900490600052602060002090601f016020900481019282601f1061099b57805160ff19168380011785556109c9565b828001600101855582156109c9579182015b828111156109c85782518255916020019190600101906109ad565b5b5090506109d691906109da565b5090565b6109fc91905b808211156109f85760008160009055506001016109e0565b5090565b905600a165627a7a7230582088257d3a8ee654e27241a268a8ef797b14773711f622a4b9cc4ebcb638023cba0029",
  "source": "pragma solidity ^0.4.24;\n\ncontract Election {\n\n    struct Vote {\n        uint id;\n        address sender;\n        uint value;\n        uint hostId;\n    }\n\n    struct Host {\n        uint id;\n        address sender;\n        string title;\n        string description;\n        string reward;\n    }\n    \n    mapping(address => bool) public voters;\n\n    mapping(uint => Vote) public votes;\n\n    mapping(uint => Host) public hosts;\n\n\n    uint public votesCount;\n\n    uint public hostsCount;\n\n    // test...\n    event votedEvent (\n        uint indexed _voteId\n    );\n\n    constructor() public {\n        host(\"自動生成\", \"この商品の需要量を予測してください\", \"報酬タイプA\");\n    }\n\n    function vote(uint _value, uint _hostId) public {\n        require(_value != 0);\n        votesCount ++;\n        votes[votesCount] = Vote(votesCount, msg.sender, _value, _hostId);\n\n        // test...\n        votedEvent(_value);\n    }\n\n    function host (string _title, string _description, string _reward) public {\n        hostsCount ++;\n        hosts[hostsCount] = Host(hostsCount, msg.sender, _title, _description, _reward);\n    }\n\n    // function getVotes() external view returns (uint[20]) {\n    //     uint[20] memory results;\n    //     uint max = votes[].length > 20 ? 20 : votes.length - 1;\n    //     for (uint i=0; i<max; i++) {\n    //         uint voteId = votes.length - 1 - i;\n    //         results[i] = voteId;\n    //     }\n    //     return results;\n    // }\n\n    // function addVote (string _name) private {\n    //     candidatesCount ++;\n    //     candidates[candidatesCount] = Vote(candidatesCount, _name, 0);\n    // }\n\n    // function vote (uint _candidateId) public {\n    //     //require\n    //     require(!voters[msg.sender]);\n    //     //require\n    //     require(_candidateId > 0 && _candidateId <= candidatesCount);\n    //     //record that voter has voted\n    //     voters[msg.sender] = true;\n    //     //update candidate vote Count\n    //     votes[_candidateId].voteCount ++;\n\n    //     votedEvent(_candidateId);\n    // }\n}",
  "sourcePath": "/Users/kondoumitsurushin/Documents/develop/election/contracts/Election.sol",
  "compiler": {
    "name": "solc",
    "version": "0.4.24+commit.e67f0147.Emscripten.clang"
  },
  "schemaVersion": "2.0.1",
  "updatedAt": "2018-11-21T07:55:31.877Z"
}