{
  "contractName": "Election",
  "abi": [
    {
      "constant": true,
      "inputs": [
        {
          "name": "",
          "type": "uint256"
        }
      ],
      "name": "hosts",
      "outputs": [
        {
          "name": "id",
          "type": "uint256"
        },
        {
          "name": "sender",
          "type": "address"
        },
        {
          "name": "title",
          "type": "string"
        },
        {
          "name": "description",
          "type": "string"
        },
        {
          "name": "reward",
          "type": "string"
        }
      ],
      "payable": false,
      "stateMutability": "view",
      "type": "function"
    },
    {
      "constant": true,
      "inputs": [
        {
          "name": "",
          "type": "uint256"
        }
      ],
      "name": "votes",
      "outputs": [
        {
          "name": "id",
          "type": "uint256"
        },
        {
          "name": "sender",
          "type": "address"
        },
        {
          "name": "value",
          "type": "uint256"
        },
        {
          "name": "hostId",
          "type": "uint256"
        }
      ],
      "payable": false,
      "stateMutability": "view",
      "type": "function"
    },
    {
      "constant": true,
      "inputs": [],
      "name": "votesCount",
      "outputs": [
        {
          "name": "",
          "type": "uint256"
        }
      ],
      "payable": false,
      "stateMutability": "view",
      "type": "function"
    },
    {
      "constant": true,
      "inputs": [
        {
          "name": "",
          "type": "address"
        }
      ],
      "name": "voters",
      "outputs": [
        {
          "name": "",
          "type": "bool"
        }
      ],
      "payable": false,
      "stateMutability": "view",
      "type": "function"
    },
    {
      "constant": true,
      "inputs": [],
      "name": "hostsCount",
      "outputs": [
        {
          "name": "",
          "type": "uint256"
        }
      ],
      "payable": false,
      "stateMutability": "view",
      "type": "function"
    },
    {
      "inputs": [],
      "payable": false,
      "stateMutability": "nonpayable",
      "type": "constructor"
    },
    {
      "anonymous": false,
      "inputs": [
        {
          "indexed": true,
          "name": "_voteId",
          "type": "uint256"
        }
      ],
      "name": "votedEvent",
      "type": "event"
    },
    {
      "constant": false,
      "inputs": [
        {
          "name": "_value",
          "type": "uint256"
        },
        {
          "name": "_hostId",
          "type": "uint256"
        }
      ],
      "name": "vote",
      "outputs": [],
      "payable": false,
      "stateMutability": "nonpayable",
      "type": "function"
    },
    {
      "constant": false,
      "inputs": [
        {
          "name": "_title",
          "type": "string"
        },
        {
          "name": "_description",
          "type": "string"
        },
        {
          "name": "_reward",
          "type": "string"
        }
      ],
      "name": "host",
      "outputs": [],
      "payable": false,
      "stateMutability": "nonpayable",
      "type": "function"
    },
    {
      "constant": true,
      "inputs": [
        {
          "name": "_id",
          "type": "uint256"
        }
      ],
      "name": "getHost",
      "outputs": [
        {
          "name": "",
          "type": "uint256"
        },
        {
          "name": "",
          "type": "address"
        },
        {
          "name": "",
          "type": "string"
        },
        {
          "name": "",
          "type": "string"
        },
        {
          "name": "",
          "type": "string"
        }
      ],
      "payable": false,
      "stateMutability": "view",
      "type": "function"
    }
  ],
  "bytecode": "0x60806040523480156200001157600080fd5b50620000f46040805190810160405280600c81526020017fe887aae58b95e7949fe688900000000000000000000000000000000000000000815250606060405190810160405280603381526020017fe38193e381aee59586e59381e381aee99c80e8a681e9878fe38292e4ba88e6b881526020017face38197e381a6e3818fe381a0e38195e38184000000000000000000000000008152506040805190810160405280601081526020017fe5a0b1e985ace382bfe382a4e383974100000000000000000000000000000000815250620000fa640100000000026401000000009004565b620002c6565b60046000815480929190600101919050555060a06040519081016040528060045481526020013373ffffffffffffffffffffffffffffffffffffffff168152602001848152602001838152602001828152506002600060045481526020019081526020016000206000820151816000015560208201518160010160006101000a81548173ffffffffffffffffffffffffffffffffffffffff021916908373ffffffffffffffffffffffffffffffffffffffff1602179055506040820151816002019080519060200190620001d092919062000217565b506060820151816003019080519060200190620001ef92919062000217565b5060808201518160040190805190602001906200020e92919062000217565b50905050505050565b828054600181600116156101000203166002900490600052602060002090601f016020900481019282601f106200025a57805160ff19168380011785556200028b565b828001600101855582156200028b579182015b828111156200028a5782518255916020019190600101906200026d565b5b5090506200029a91906200029e565b5090565b620002c391905b80821115620002bf576000816000905550600101620002a5565b5090565b90565b610edd80620002d66000396000f30060806040526004361061008e576000357c0100000000000000000000000000000000000000000000000000000000900463ffffffff1680632f564a90146100935780633735b3c6146101885780633dfd95e4146103405780635df81330146104f85780638778b27d1461057a578063a3ec138d146105a5578063b384abef14610600578063eed8de6c14610637575b600080fd5b34801561009f57600080fd5b50610186600480360381019080803590602001908201803590602001908080601f0160208091040260200160405190810160405280939291908181526020018383808284378201915050505050509192919290803590602001908201803590602001908080601f0160208091040260200160405190810160405280939291908181526020018383808284378201915050505050509192919290803590602001908201803590602001908080601f0160208091040260200160405190810160405280939291908181526020018383808284378201915050505050509192919290505050610662565b005b34801561019457600080fd5b506101b360048036038101908080359060200190929190505050610779565b604051808681526020018573ffffffffffffffffffffffffffffffffffffffff1673ffffffffffffffffffffffffffffffffffffffff168152602001806020018060200180602001848103845287818151815260200191508051906020019080838360005b83811015610233578082015181840152602081019050610218565b50505050905090810190601f1680156102605780820380516001836020036101000a031916815260200191505b50848103835286818151815260200191508051906020019080838360005b8381101561029957808201518184015260208101905061027e565b50505050905090810190601f1680156102c65780820380516001836020036101000a031916815260200191505b50848103825285818151815260200191508051906020019080838360005b838110156102ff5780820151818401526020810190506102e4565b50505050905090810190601f16801561032c5780820380516001836020036101000a031916815260200191505b509850505050505050505060405180910390f35b34801561034c57600080fd5b5061036b60048036038101908080359060200190929190505050610997565b604051808681526020018573ffffffffffffffffffffffffffffffffffffffff1673ffffffffffffffffffffffffffffffffffffffff168152602001806020018060200180602001848103845287818151815260200191508051906020019080838360005b838110156103eb5780820151818401526020810190506103d0565b50505050905090810190601f1680156104185780820380516001836020036101000a031916815260200191505b50848103835286818151815260200191508051906020019080838360005b83811015610451578082015181840152602081019050610436565b50505050905090810190601f16801561047e5780820380516001836020036101000a031916815260200191505b50848103825285818151815260200191508051906020019080838360005b838110156104b757808201518184015260208101905061049c565b50505050905090810190601f1680156104e45780820380516001836020036101000a031916815260200191505b509850505050505050505060405180910390f35b34801561050457600080fd5b5061052360048036038101908080359060200190929190505050610c40565b604051808581526020018473ffffffffffffffffffffffffffffffffffffffff1673ffffffffffffffffffffffffffffffffffffffff16815260200183815260200182815260200194505050505060405180910390f35b34801561058657600080fd5b5061058f610c90565b6040518082815260200191505060405180910390f35b3480156105b157600080fd5b506105e6600480360381019080803573ffffffffffffffffffffffffffffffffffffffff169060200190929190505050610c96565b604051808215151515815260200191505060405180910390f35b34801561060c57600080fd5b506106356004803603810190808035906020019092919080359060200190929190505050610cb6565b005b34801561064357600080fd5b5061064c610dc0565b6040518082815260200191505060405180910390f35b60046000815480929190600101919050555060a06040519081016040528060045481526020013373ffffffffffffffffffffffffffffffffffffffff168152602001848152602001838152602001828152506002600060045481526020019081526020016000206000820151816000015560208201518160010160006101000a81548173ffffffffffffffffffffffffffffffffffffffff021916908373ffffffffffffffffffffffffffffffffffffffff1602179055506040820151816002019080519060200190610736929190610dc6565b506060820151816003019080519060200190610753929190610dc6565b506080820151816004019080519060200190610770929190610dc6565b50905050505050565b60026020528060005260406000206000915090508060000154908060010160009054906101000a900473ffffffffffffffffffffffffffffffffffffffff1690806002018054600181600116156101000203166002900480601f0160208091040260200160405190810160405280929190818152602001828054600181600116156101000203166002900480156108515780601f1061082657610100808354040283529160200191610851565b820191906000526020600020905b81548152906001019060200180831161083457829003601f168201915b505050505090806003018054600181600116156101000203166002900480601f0160208091040260200160405190810160405280929190818152602001828054600181600116156101000203166002900480156108ef5780601f106108c4576101008083540402835291602001916108ef565b820191906000526020600020905b8154815290600101906020018083116108d257829003601f168201915b505050505090806004018054600181600116156101000203166002900480601f01602080910402602001604051908101604052809291908181526020018280546001816001161561010002031660029004801561098d5780601f106109625761010080835404028352916020019161098d565b820191906000526020600020905b81548152906001019060200180831161097057829003601f168201915b5050505050905085565b60008060608060606109a7610e46565b6002600088815260200190815260200160002060a06040519081016040529081600082015481526020016001820160009054906101000a900473ffffffffffffffffffffffffffffffffffffffff1673ffffffffffffffffffffffffffffffffffffffff1673ffffffffffffffffffffffffffffffffffffffff168152602001600282018054600181600116156101000203166002900480601f016020809104026020016040519081016040528092919081815260200182805460018160011615610100020316600290048015610abf5780601f10610a9457610100808354040283529160200191610abf565b820191906000526020600020905b815481529060010190602001808311610aa257829003601f168201915b50505050508152602001600382018054600181600116156101000203166002900480601f016020809104026020016040519081016040528092919081815260200182805460018160011615610100020316600290048015610b615780601f10610b3657610100808354040283529160200191610b61565b820191906000526020600020905b815481529060010190602001808311610b4457829003601f168201915b50505050508152602001600482018054600181600116156101000203166002900480601f016020809104026020016040519081016040528092919081815260200182805460018160011615610100020316600290048015610c035780601f10610bd857610100808354040283529160200191610c03565b820191906000526020600020905b815481529060010190602001808311610be657829003601f168201915b5050505050815250509050868160200151826040015183606001518460800151829250819150809050955095509550955095505091939590929450565b60016020528060005260406000206000915090508060000154908060010160009054906101000a900473ffffffffffffffffffffffffffffffffffffffff16908060020154908060030154905084565b60035481565b60006020528060005260406000206000915054906101000a900460ff1681565b60008214151515610cc657600080fd5b60036000815480929190600101919050555060806040519081016040528060035481526020013373ffffffffffffffffffffffffffffffffffffffff168152602001838152602001828152506001600060035481526020019081526020016000206000820151816000015560208201518160010160006101000a81548173ffffffffffffffffffffffffffffffffffffffff021916908373ffffffffffffffffffffffffffffffffffffffff1602179055506040820151816002015560608201518160030155905050817ffff3c900d938d21d0990d786e819f29b8d05c1ef587b462b939609625b684b1660405160405180910390a25050565b60045481565b828054600181600116156101000203166002900490600052602060002090601f016020900481019282601f10610e0757805160ff1916838001178555610e35565b82800160010185558215610e35579182015b82811115610e34578251825591602001919060010190610e19565b5b509050610e429190610e8c565b5090565b60a06040519081016040528060008152602001600073ffffffffffffffffffffffffffffffffffffffff1681526020016060815260200160608152602001606081525090565b610eae91905b80821115610eaa576000816000905550600101610e92565b5090565b905600a165627a7a723058208ec53d65f461afe3c48634e111db6eb89cedbf989fc629bdbcf0638ec19b02160029",
  "source": "pragma solidity ^0.4.24;\n\ncontract Election {\n\n    struct Vote {\n        uint id;\n        address sender;\n        uint value;\n        uint hostId;\n    }\n\n    struct Host {\n        uint id;\n        address sender;\n        string title;\n        string description;\n        string reward;\n    }\n    \n    mapping(address => bool) public voters;\n\n    mapping(uint => Vote) public votes;\n\n    mapping(uint => Host) public hosts;\n\n\n    uint public votesCount;\n\n    uint public hostsCount;\n\n    // test...\n    event votedEvent (\n        uint indexed _voteId\n    );\n\n    constructor() public {\n        host(\"自動生成\", \"この商品の需要量を予測してください\", \"報酬タイプA\");\n    }\n\n    function vote(uint _value, uint _hostId) public {\n        require(_value != 0);\n        votesCount ++;\n        votes[votesCount] = Vote(votesCount, msg.sender, _value, _hostId);\n\n        // test...\n        votedEvent(_value);\n    }\n\n    function host (string _title, string _description, string _reward) public {\n        hostsCount ++;\n        hosts[hostsCount] = Host(hostsCount, msg.sender, _title, _description, _reward);\n    }\n\n    // function getHost() external view returns (uint[20]) {\n    //     uint[20] memory results;\n    //     uint max = votes[].length > 20 ? 20 : votes.length - 1;\n    //     for (uint i=0; i<max; i++) {\n    //         uint voteId = votes.length - 1 - i;\n    //         results[i] = voteId;\n    //     }\n    //     return results;\n    // }\n\n    function getHost(uint _id) public view returns (uint, address, string, string, string) {\n        Host memory host = hosts[_id];\n        return (_id, host.sender, host.title, host.description, host.reward);\n    }\n\n    // function addVote (string _name) private {\n    //     candidatesCount ++;\n    //     candidates[candidatesCount] = Vote(candidatesCount, _name, 0);\n    // }\n\n    // function vote (uint _candidateId) public {\n    //     //require\n    //     require(!voters[msg.sender]);\n    //     //require\n    //     require(_candidateId > 0 && _candidateId <= candidatesCount);\n    //     //record that voter has voted\n    //     voters[msg.sender] = true;\n    //     //update candidate vote Count\n    //     votes[_candidateId].voteCount ++;\n\n    //     votedEvent(_candidateId);\n    // }\n}",
  "sourcePath": "/Users/kondoumitsurushin/Documents/develop/election/contracts/Election.sol",
  "compiler": {
    "name": "solc",
    "version": "0.4.24+commit.e67f0147.Emscripten.clang"
  },
  "schemaVersion": "2.0.1",
  "updatedAt": "2018-11-24T11:36:15.548Z"
}