{
  "contractName": "Election",
  "abi": [
    {
      "constant": true,
      "inputs": [
        {
          "name": "",
          "type": "uint256"
        }
      ],
      "name": "hosts",
      "outputs": [
        {
          "name": "id",
          "type": "uint256"
        },
        {
          "name": "sender",
          "type": "address"
        },
        {
          "name": "title",
          "type": "string"
        },
        {
          "name": "description",
          "type": "string"
        },
        {
          "name": "reward",
          "type": "string"
        }
      ],
      "payable": false,
      "stateMutability": "view",
      "type": "function"
    },
    {
      "constant": true,
      "inputs": [
        {
          "name": "",
          "type": "uint256"
        }
      ],
      "name": "votes",
      "outputs": [
        {
          "name": "id",
          "type": "uint256"
        },
        {
          "name": "sender",
          "type": "address"
        },
        {
          "name": "value",
          "type": "uint256"
        },
        {
          "name": "hostId",
          "type": "uint256"
        }
      ],
      "payable": false,
      "stateMutability": "view",
      "type": "function"
    },
    {
      "constant": true,
      "inputs": [],
      "name": "votesCount",
      "outputs": [
        {
          "name": "",
          "type": "uint256"
        }
      ],
      "payable": false,
      "stateMutability": "view",
      "type": "function"
    },
    {
      "constant": true,
      "inputs": [],
      "name": "hostsCount",
      "outputs": [
        {
          "name": "",
          "type": "uint256"
        }
      ],
      "payable": false,
      "stateMutability": "view",
      "type": "function"
    },
    {
      "inputs": [],
      "payable": false,
      "stateMutability": "nonpayable",
      "type": "constructor"
    },
    {
      "constant": false,
      "inputs": [
        {
          "name": "_value",
          "type": "uint256"
        },
        {
          "name": "_hostId",
          "type": "uint256"
        }
      ],
      "name": "vote",
      "outputs": [],
      "payable": false,
      "stateMutability": "nonpayable",
      "type": "function"
    },
    {
      "constant": false,
      "inputs": [
        {
          "name": "_title",
          "type": "string"
        },
        {
          "name": "_description",
          "type": "string"
        },
        {
          "name": "_reward",
          "type": "string"
        }
      ],
      "name": "host",
      "outputs": [],
      "payable": false,
      "stateMutability": "nonpayable",
      "type": "function"
    },
    {
      "constant": true,
      "inputs": [
        {
          "name": "_id",
          "type": "uint256"
        }
      ],
      "name": "getHost",
      "outputs": [
        {
          "name": "",
          "type": "uint256"
        },
        {
          "name": "",
          "type": "address"
        },
        {
          "name": "",
          "type": "string"
        },
        {
          "name": "",
          "type": "string"
        },
        {
          "name": "",
          "type": "string"
        }
      ],
      "payable": false,
      "stateMutability": "view",
      "type": "function"
    },
    {
      "constant": true,
      "inputs": [
        {
          "name": "_id",
          "type": "uint256"
        }
      ],
      "name": "getVote",
      "outputs": [
        {
          "name": "",
          "type": "uint256"
        },
        {
          "name": "",
          "type": "address"
        },
        {
          "name": "",
          "type": "uint256"
        },
        {
          "name": "",
          "type": "uint256"
        }
      ],
      "payable": false,
      "stateMutability": "view",
      "type": "function"
    }
  ],
  "bytecode": "0x60806040523480156200001157600080fd5b50620000f46040805190810160405280600c81526020017fe887aae58b95e7949fe688900000000000000000000000000000000000000000815250606060405190810160405280603381526020017fe38193e381aee59586e59381e381aee99c80e8a681e9878fe38292e4ba88e6b881526020017face38197e381a6e3818fe381a0e38195e38184000000000000000000000000008152506040805190810160405280601081526020017fe5a0b1e985ace382bfe382a4e383974100000000000000000000000000000000815250620000fa640100000000026401000000009004565b620002c6565b60036000815480929190600101919050555060a06040519081016040528060035481526020013373ffffffffffffffffffffffffffffffffffffffff168152602001848152602001838152602001828152506001600060035481526020019081526020016000206000820151816000015560208201518160010160006101000a81548173ffffffffffffffffffffffffffffffffffffffff021916908373ffffffffffffffffffffffffffffffffffffffff1602179055506040820151816002019080519060200190620001d092919062000217565b506060820151816003019080519060200190620001ef92919062000217565b5060808201518160040190805190602001906200020e92919062000217565b50905050505050565b828054600181600116156101000203166002900490600052602060002090601f016020900481019282601f106200025a57805160ff19168380011785556200028b565b828001600101855582156200028b579182015b828111156200028a5782518255916020019190600101906200026d565b5b5090506200029a91906200029e565b5090565b620002c391905b80821115620002bf576000816000905550600101620002a5565b5090565b90565b610fb780620002d66000396000f30060806040526004361061008e576000357c0100000000000000000000000000000000000000000000000000000000900463ffffffff1680632f564a90146100935780633735b3c6146101885780633dfd95e4146103405780635a55c1f0146104f85780635df813301461057a5780638778b27d146105fc578063b384abef14610627578063eed8de6c1461065e575b600080fd5b34801561009f57600080fd5b50610186600480360381019080803590602001908201803590602001908080601f0160208091040260200160405190810160405280939291908181526020018383808284378201915050505050509192919290803590602001908201803590602001908080601f0160208091040260200160405190810160405280939291908181526020018383808284378201915050505050509192919290803590602001908201803590602001908080601f0160208091040260200160405190810160405280939291908181526020018383808284378201915050505050509192919290505050610689565b005b34801561019457600080fd5b506101b3600480360381019080803590602001909291905050506107a0565b604051808681526020018573ffffffffffffffffffffffffffffffffffffffff1673ffffffffffffffffffffffffffffffffffffffff168152602001806020018060200180602001848103845287818151815260200191508051906020019080838360005b83811015610233578082015181840152602081019050610218565b50505050905090810190601f1680156102605780820380516001836020036101000a031916815260200191505b50848103835286818151815260200191508051906020019080838360005b8381101561029957808201518184015260208101905061027e565b50505050905090810190601f1680156102c65780820380516001836020036101000a031916815260200191505b50848103825285818151815260200191508051906020019080838360005b838110156102ff5780820151818401526020810190506102e4565b50505050905090810190601f16801561032c5780820380516001836020036101000a031916815260200191505b509850505050505050505060405180910390f35b34801561034c57600080fd5b5061036b600480360381019080803590602001909291905050506109be565b604051808681526020018573ffffffffffffffffffffffffffffffffffffffff1673ffffffffffffffffffffffffffffffffffffffff168152602001806020018060200180602001848103845287818151815260200191508051906020019080838360005b838110156103eb5780820151818401526020810190506103d0565b50505050905090810190601f1680156104185780820380516001836020036101000a031916815260200191505b50848103835286818151815260200191508051906020019080838360005b83811015610451578082015181840152602081019050610436565b50505050905090810190601f16801561047e5780820380516001836020036101000a031916815260200191505b50848103825285818151815260200191508051906020019080838360005b838110156104b757808201518184015260208101905061049c565b50505050905090810190601f1680156104e45780820380516001836020036101000a031916815260200191505b509850505050505050505060405180910390f35b34801561050457600080fd5b5061052360048036038101908080359060200190929190505050610c67565b604051808581526020018473ffffffffffffffffffffffffffffffffffffffff1673ffffffffffffffffffffffffffffffffffffffff16815260200183815260200182815260200194505050505060405180910390f35b34801561058657600080fd5b506105a560048036038101908080359060200190929190505050610d29565b604051808581526020018473ffffffffffffffffffffffffffffffffffffffff1673ffffffffffffffffffffffffffffffffffffffff16815260200183815260200182815260200194505050505060405180910390f35b34801561060857600080fd5b50610611610d79565b6040518082815260200191505060405180910390f35b34801561063357600080fd5b5061065c6004803603810190808035906020019092919080359060200190929190505050610d7f565b005b34801561066a57600080fd5b50610673610e5b565b6040518082815260200191505060405180910390f35b60036000815480929190600101919050555060a06040519081016040528060035481526020013373ffffffffffffffffffffffffffffffffffffffff168152602001848152602001838152602001828152506001600060035481526020019081526020016000206000820151816000015560208201518160010160006101000a81548173ffffffffffffffffffffffffffffffffffffffff021916908373ffffffffffffffffffffffffffffffffffffffff160217905550604082015181600201908051906020019061075d929190610e61565b50606082015181600301908051906020019061077a929190610e61565b506080820151816004019080519060200190610797929190610e61565b50905050505050565b60016020528060005260406000206000915090508060000154908060010160009054906101000a900473ffffffffffffffffffffffffffffffffffffffff1690806002018054600181600116156101000203166002900480601f0160208091040260200160405190810160405280929190818152602001828054600181600116156101000203166002900480156108785780601f1061084d57610100808354040283529160200191610878565b820191906000526020600020905b81548152906001019060200180831161085b57829003601f168201915b505050505090806003018054600181600116156101000203166002900480601f0160208091040260200160405190810160405280929190818152602001828054600181600116156101000203166002900480156109165780601f106108eb57610100808354040283529160200191610916565b820191906000526020600020905b8154815290600101906020018083116108f957829003601f168201915b505050505090806004018054600181600116156101000203166002900480601f0160208091040260200160405190810160405280929190818152602001828054600181600116156101000203166002900480156109b45780601f10610989576101008083540402835291602001916109b4565b820191906000526020600020905b81548152906001019060200180831161099757829003601f168201915b5050505050905085565b60008060608060606109ce610ee1565b6001600088815260200190815260200160002060a06040519081016040529081600082015481526020016001820160009054906101000a900473ffffffffffffffffffffffffffffffffffffffff1673ffffffffffffffffffffffffffffffffffffffff1673ffffffffffffffffffffffffffffffffffffffff168152602001600282018054600181600116156101000203166002900480601f016020809104026020016040519081016040528092919081815260200182805460018160011615610100020316600290048015610ae65780601f10610abb57610100808354040283529160200191610ae6565b820191906000526020600020905b815481529060010190602001808311610ac957829003601f168201915b50505050508152602001600382018054600181600116156101000203166002900480601f016020809104026020016040519081016040528092919081815260200182805460018160011615610100020316600290048015610b885780601f10610b5d57610100808354040283529160200191610b88565b820191906000526020600020905b815481529060010190602001808311610b6b57829003601f168201915b50505050508152602001600482018054600181600116156101000203166002900480601f016020809104026020016040519081016040528092919081815260200182805460018160011615610100020316600290048015610c2a5780601f10610bff57610100808354040283529160200191610c2a565b820191906000526020600020905b815481529060010190602001808311610c0d57829003601f168201915b5050505050815250509050868160200151826040015183606001518460800151829250819150809050955095509550955095505091939590929450565b600080600080610c75610f27565b60008087815260200190815260200160002060806040519081016040529081600082015481526020016001820160009054906101000a900473ffffffffffffffffffffffffffffffffffffffff1673ffffffffffffffffffffffffffffffffffffffff1673ffffffffffffffffffffffffffffffffffffffff168152602001600282015481526020016003820154815250509050858160200151826040015183606001519450945094509450509193509193565b60006020528060005260406000206000915090508060000154908060010160009054906101000a900473ffffffffffffffffffffffffffffffffffffffff16908060020154908060030154905084565b60025481565b60008214151515610d8f57600080fd5b60026000815480929190600101919050555060806040519081016040528060025481526020013373ffffffffffffffffffffffffffffffffffffffff1681526020018381526020018281525060008060025481526020019081526020016000206000820151816000015560208201518160010160006101000a81548173ffffffffffffffffffffffffffffffffffffffff021916908373ffffffffffffffffffffffffffffffffffffffff16021790555060408201518160020155606082015181600301559050505050565b60035481565b828054600181600116156101000203166002900490600052602060002090601f016020900481019282601f10610ea257805160ff1916838001178555610ed0565b82800160010185558215610ed0579182015b82811115610ecf578251825591602001919060010190610eb4565b5b509050610edd9190610f66565b5090565b60a06040519081016040528060008152602001600073ffffffffffffffffffffffffffffffffffffffff1681526020016060815260200160608152602001606081525090565b60806040519081016040528060008152602001600073ffffffffffffffffffffffffffffffffffffffff16815260200160008152602001600081525090565b610f8891905b80821115610f84576000816000905550600101610f6c565b5090565b905600a165627a7a72305820d804f1e85821a03caac5128e9b183d049da32501609c2ddd985898f3eb2078a70029",
  "source": "pragma solidity ^0.4.24;\n\ncontract Election {\n\n    struct Vote {\n        uint id;\n        address sender;\n        uint value;\n        uint hostId;\n    }\n\n    struct Host {\n        uint id;\n        address sender;\n        string title;\n        string description;\n        string reward;\n    }\n\n    mapping(uint => Vote) public votes;\n\n    mapping(uint => Host) public hosts;\n\n    //mapping(int => Vote) public voteIdFromHostId;\n\n    uint public votesCount;\n\n    uint public hostsCount;\n\n    constructor() public {\n        host(\"自動生成\", \"この商品の需要量を予測してください\", \"報酬タイプA\");\n    }\n\n    function vote(uint _value, uint _hostId) public {\n        require(_value != 0);\n        votesCount ++;\n        votes[votesCount] = Vote(votesCount, msg.sender, _value, _hostId);\n    }\n\n    function host (string _title, string _description, string _reward) public {\n        hostsCount ++;\n        hosts[hostsCount] = Host(hostsCount, msg.sender, _title, _description, _reward);\n    }\n\n    // function votesList() external view returns (uint[20]) {\n    //     uint[20] memory results;\n    //     uint max = votes[].length > 20 ? 20 : votes.length - 1;\n    //     for (uint i=0; i<max; i++) {\n    //         uint voteId = votes.length - 1 - i;\n    //         results[i] = voteId;\n    //     }\n    //     return results;\n    // }\n\n    function getHost(uint _id) public view returns (uint, address, string, string, string) {\n        Host memory host = hosts[_id];\n        return (_id, host.sender, host.title, host.description, host.reward);\n    }\n\n    function getVote(uint _id) public view returns (uint, address, uint, uint) {\n        Vote memory vote = votes[_id];\n        return (_id, vote.sender, vote.value, vote.hostId);\n    }\n\n    // function addVote (string _name) private {\n    //     candidatesCount ++;\n    //     candidates[candidatesCount] = Vote(candidatesCount, _name, 0);\n    // }\n\n    // function vote (uint _candidateId) public {\n    //     //require\n    //     require(!voters[msg.sender]);\n    //     //require\n    //     require(_candidateId > 0 && _candidateId <= candidatesCount);\n    //     //record that voter has voted\n    //     voters[msg.sender] = true;\n    //     //update candidate vote Count\n    //     votes[_candidateId].voteCount ++;\n\n    //     votedEvent(_candidateId);\n    // }\n}",
  "sourcePath": "/Users/kondoumitsurushin/Documents/develop/election/contracts/Election.sol",
  "compiler": {
    "name": "solc",
    "version": "0.4.24+commit.e67f0147.Emscripten.clang"
  },
  "schemaVersion": "2.0.1",
  "updatedAt": "2018-11-25T11:21:22.891Z"
}