{
  "contractName": "Election",
  "abi": [
    {
      "constant": true,
      "inputs": [
        {
          "name": "",
          "type": "uint256"
        }
      ],
      "name": "hosts",
      "outputs": [
        {
          "name": "id",
          "type": "uint256"
        },
        {
          "name": "sender",
          "type": "address"
        },
        {
          "name": "title",
          "type": "string"
        },
        {
          "name": "description",
          "type": "string"
        },
        {
          "name": "reward",
          "type": "string"
        },
        {
          "name": "end",
          "type": "uint256"
        }
      ],
      "payable": false,
      "stateMutability": "view",
      "type": "function"
    },
    {
      "constant": true,
      "inputs": [
        {
          "name": "",
          "type": "uint256"
        }
      ],
      "name": "votes",
      "outputs": [
        {
          "name": "id",
          "type": "uint256"
        },
        {
          "name": "sender",
          "type": "address"
        },
        {
          "name": "value",
          "type": "uint256"
        },
        {
          "name": "hostId",
          "type": "uint256"
        }
      ],
      "payable": false,
      "stateMutability": "view",
      "type": "function"
    },
    {
      "constant": true,
      "inputs": [],
      "name": "votesCount",
      "outputs": [
        {
          "name": "",
          "type": "uint256"
        }
      ],
      "payable": false,
      "stateMutability": "view",
      "type": "function"
    },
    {
      "constant": true,
      "inputs": [],
      "name": "hostsCount",
      "outputs": [
        {
          "name": "",
          "type": "uint256"
        }
      ],
      "payable": false,
      "stateMutability": "view",
      "type": "function"
    },
    {
      "inputs": [],
      "payable": false,
      "stateMutability": "nonpayable",
      "type": "constructor"
    },
    {
      "constant": false,
      "inputs": [
        {
          "name": "_value",
          "type": "uint256"
        },
        {
          "name": "_hostId",
          "type": "uint256"
        }
      ],
      "name": "vote",
      "outputs": [],
      "payable": false,
      "stateMutability": "nonpayable",
      "type": "function"
    },
    {
      "constant": false,
      "inputs": [
        {
          "name": "_title",
          "type": "string"
        },
        {
          "name": "_description",
          "type": "string"
        },
        {
          "name": "_reward",
          "type": "string"
        },
        {
          "name": "_biddingTime",
          "type": "uint256"
        }
      ],
      "name": "host",
      "outputs": [],
      "payable": false,
      "stateMutability": "nonpayable",
      "type": "function"
    },
    {
      "constant": true,
      "inputs": [
        {
          "name": "_id",
          "type": "uint256"
        }
      ],
      "name": "getHost",
      "outputs": [
        {
          "name": "",
          "type": "uint256"
        },
        {
          "name": "",
          "type": "address"
        },
        {
          "name": "",
          "type": "string"
        },
        {
          "name": "",
          "type": "string"
        },
        {
          "name": "",
          "type": "string"
        }
      ],
      "payable": false,
      "stateMutability": "view",
      "type": "function"
    },
    {
      "constant": true,
      "inputs": [
        {
          "name": "_id",
          "type": "uint256"
        }
      ],
      "name": "getVote",
      "outputs": [
        {
          "name": "",
          "type": "uint256"
        },
        {
          "name": "",
          "type": "address"
        },
        {
          "name": "",
          "type": "uint256"
        },
        {
          "name": "",
          "type": "uint256"
        }
      ],
      "payable": false,
      "stateMutability": "view",
      "type": "function"
    }
  ],
  "bytecode": "0x60806040523480156200001157600080fd5b50620000f66040805190810160405280600c81526020017fe887aae58b95e7949fe688900000000000000000000000000000000000000000815250606060405190810160405280603381526020017fe38193e381aee59586e59381e381aee99c80e8a681e9878fe38292e4ba88e6b881526020017face38197e381a6e3818fe381a0e38195e38184000000000000000000000000008152506040805190810160405280601081526020017fe5a0b1e985ace382bfe382a4e3839741000000000000000000000000000000008152506064620000fc640100000000026401000000009004565b620002e4565b6000600360008154809291906001019190505550603c82024201905060c06040519081016040528060035481526020013373ffffffffffffffffffffffffffffffffffffffff168152602001868152602001858152602001848152602001828152506001600060035481526020019081526020016000206000820151816000015560208201518160010160006101000a81548173ffffffffffffffffffffffffffffffffffffffff021916908373ffffffffffffffffffffffffffffffffffffffff1602179055506040820151816002019080519060200190620001e292919062000235565b5060608201518160030190805190602001906200020192919062000235565b5060808201518160040190805190602001906200022092919062000235565b5060a082015181600501559050505050505050565b828054600181600116156101000203166002900490600052602060002090601f016020900481019282601f106200027857805160ff1916838001178555620002a9565b82800160010185558215620002a9579182015b82811115620002a85782518255916020019190600101906200028b565b5b509050620002b89190620002bc565b5090565b620002e191905b80821115620002dd576000816000905550600101620002c3565b5090565b90565b610ffb80620002f46000396000f30060806040526004361061008e576000357c0100000000000000000000000000000000000000000000000000000000900463ffffffff1680633735b3c6146100935780633dfd95e4146102525780635a55c1f01461040a5780635df813301461048c5780635e69a6031461050e5780638778b27d1461060d578063b384abef14610638578063eed8de6c1461066f575b600080fd5b34801561009f57600080fd5b506100be6004803603810190808035906020019092919050505061069a565b604051808781526020018673ffffffffffffffffffffffffffffffffffffffff1673ffffffffffffffffffffffffffffffffffffffff168152602001806020018060200180602001858152602001848103845288818151815260200191508051906020019080838360005b83811015610144578082015181840152602081019050610129565b50505050905090810190601f1680156101715780820380516001836020036101000a031916815260200191505b50848103835287818151815260200191508051906020019080838360005b838110156101aa57808201518184015260208101905061018f565b50505050905090810190601f1680156101d75780820380516001836020036101000a031916815260200191505b50848103825286818151815260200191508051906020019080838360005b838110156102105780820151818401526020810190506101f5565b50505050905090810190601f16801561023d5780820380516001836020036101000a031916815260200191505b50995050505050505050505060405180910390f35b34801561025e57600080fd5b5061027d600480360381019080803590602001909291905050506108be565b604051808681526020018573ffffffffffffffffffffffffffffffffffffffff1673ffffffffffffffffffffffffffffffffffffffff168152602001806020018060200180602001848103845287818151815260200191508051906020019080838360005b838110156102fd5780820151818401526020810190506102e2565b50505050905090810190601f16801561032a5780820380516001836020036101000a031916815260200191505b50848103835286818151815260200191508051906020019080838360005b83811015610363578082015181840152602081019050610348565b50505050905090810190601f1680156103905780820380516001836020036101000a031916815260200191505b50848103825285818151815260200191508051906020019080838360005b838110156103c95780820151818401526020810190506103ae565b50505050905090810190601f1680156103f65780820380516001836020036101000a031916815260200191505b509850505050505050505060405180910390f35b34801561041657600080fd5b5061043560048036038101908080359060200190929190505050610b71565b604051808581526020018473ffffffffffffffffffffffffffffffffffffffff1673ffffffffffffffffffffffffffffffffffffffff16815260200183815260200182815260200194505050505060405180910390f35b34801561049857600080fd5b506104b760048036038101908080359060200190929190505050610c33565b604051808581526020018473ffffffffffffffffffffffffffffffffffffffff1673ffffffffffffffffffffffffffffffffffffffff16815260200183815260200182815260200194505050505060405180910390f35b34801561051a57600080fd5b5061060b600480360381019080803590602001908201803590602001908080601f0160208091040260200160405190810160405280939291908181526020018383808284378201915050505050509192919290803590602001908201803590602001908080601f0160208091040260200160405190810160405280939291908181526020018383808284378201915050505050509192919290803590602001908201803590602001908080601f016020809104026020016040519081016040528093929190818152602001838380828437820191505050505050919291929080359060200190929190505050610c83565b005b34801561061957600080fd5b50610622610db6565b6040518082815260200191505060405180910390f35b34801561064457600080fd5b5061066d6004803603810190808035906020019092919080359060200190929190505050610dbc565b005b34801561067b57600080fd5b50610684610e98565b6040518082815260200191505060405180910390f35b60016020528060005260406000206000915090508060000154908060010160009054906101000a900473ffffffffffffffffffffffffffffffffffffffff1690806002018054600181600116156101000203166002900480601f0160208091040260200160405190810160405280929190818152602001828054600181600116156101000203166002900480156107725780601f1061074757610100808354040283529160200191610772565b820191906000526020600020905b81548152906001019060200180831161075557829003601f168201915b505050505090806003018054600181600116156101000203166002900480601f0160208091040260200160405190810160405280929190818152602001828054600181600116156101000203166002900480156108105780601f106107e557610100808354040283529160200191610810565b820191906000526020600020905b8154815290600101906020018083116107f357829003601f168201915b505050505090806004018054600181600116156101000203166002900480601f0160208091040260200160405190810160405280929190818152602001828054600181600116156101000203166002900480156108ae5780601f10610883576101008083540402835291602001916108ae565b820191906000526020600020905b81548152906001019060200180831161089157829003601f168201915b5050505050908060050154905086565b60008060608060606108ce610e9e565b6001600088815260200190815260200160002060c06040519081016040529081600082015481526020016001820160009054906101000a900473ffffffffffffffffffffffffffffffffffffffff1673ffffffffffffffffffffffffffffffffffffffff1673ffffffffffffffffffffffffffffffffffffffff168152602001600282018054600181600116156101000203166002900480601f0160208091040260200160405190810160405280929190818152602001828054600181600116156101000203166002900480156109e65780601f106109bb576101008083540402835291602001916109e6565b820191906000526020600020905b8154815290600101906020018083116109c957829003601f168201915b50505050508152602001600382018054600181600116156101000203166002900480601f016020809104026020016040519081016040528092919081815260200182805460018160011615610100020316600290048015610a885780601f10610a5d57610100808354040283529160200191610a88565b820191906000526020600020905b815481529060010190602001808311610a6b57829003601f168201915b50505050508152602001600482018054600181600116156101000203166002900480601f016020809104026020016040519081016040528092919081815260200182805460018160011615610100020316600290048015610b2a5780601f10610aff57610100808354040283529160200191610b2a565b820191906000526020600020905b815481529060010190602001808311610b0d57829003601f168201915b505050505081526020016005820154815250509050868160200151826040015183606001518460800151829250819150809050955095509550955095505091939590929450565b600080600080610b7f610eeb565b60008087815260200190815260200160002060806040519081016040529081600082015481526020016001820160009054906101000a900473ffffffffffffffffffffffffffffffffffffffff1673ffffffffffffffffffffffffffffffffffffffff1673ffffffffffffffffffffffffffffffffffffffff168152602001600282015481526020016003820154815250509050858160200151826040015183606001519450945094509450509193509193565b60006020528060005260406000206000915090508060000154908060010160009054906101000a900473ffffffffffffffffffffffffffffffffffffffff16908060020154908060030154905084565b6000600360008154809291906001019190505550603c82024201905060c06040519081016040528060035481526020013373ffffffffffffffffffffffffffffffffffffffff168152602001868152602001858152602001848152602001828152506001600060035481526020019081526020016000206000820151816000015560208201518160010160006101000a81548173ffffffffffffffffffffffffffffffffffffffff021916908373ffffffffffffffffffffffffffffffffffffffff1602179055506040820151816002019080519060200190610d67929190610f2a565b506060820151816003019080519060200190610d84929190610f2a565b506080820151816004019080519060200190610da1929190610f2a565b5060a082015181600501559050505050505050565b60025481565b60008214151515610dcc57600080fd5b60026000815480929190600101919050555060806040519081016040528060025481526020013373ffffffffffffffffffffffffffffffffffffffff1681526020018381526020018281525060008060025481526020019081526020016000206000820151816000015560208201518160010160006101000a81548173ffffffffffffffffffffffffffffffffffffffff021916908373ffffffffffffffffffffffffffffffffffffffff16021790555060408201518160020155606082015181600301559050505050565b60035481565b60c06040519081016040528060008152602001600073ffffffffffffffffffffffffffffffffffffffff168152602001606081526020016060815260200160608152602001600081525090565b60806040519081016040528060008152602001600073ffffffffffffffffffffffffffffffffffffffff16815260200160008152602001600081525090565b828054600181600116156101000203166002900490600052602060002090601f016020900481019282601f10610f6b57805160ff1916838001178555610f99565b82800160010185558215610f99579182015b82811115610f98578251825591602001919060010190610f7d565b5b509050610fa69190610faa565b5090565b610fcc91905b80821115610fc8576000816000905550600101610fb0565b5090565b905600a165627a7a723058203d02a6c99d32f04fe666afbea63fa230fd9cb84ea846796ccdb3da7ffbf84bca0029",
  "source": "pragma solidity ^0.4.24;\n\ncontract Election {\n\n    struct Vote {\n        uint id;\n        address sender;\n        uint value;\n        uint hostId;\n    }\n\n    struct Host {\n        uint id;\n        address sender;\n        string title;\n        string description;\n        string reward;\n        uint end;\n    }\n\n    mapping(uint => Vote) public votes;\n\n    mapping(uint => Host) public hosts;\n\n    //mapping(int => Vote) public voteIdFromHostId;\n\n    uint public votesCount;\n\n    uint public hostsCount;\n\n    constructor() public {\n        host(\"自動生成\", \"この商品の需要量を予測してください\", \"報酬タイプA\", 100);\n    }\n\n    function vote(uint _value, uint _hostId) public {\n        require(_value != 0);\n        votesCount ++;\n        votes[votesCount] = Vote(votesCount, msg.sender, _value, _hostId);\n    }\n\n    function host(string _title, string _description, string _reward, uint _biddingTime) public {\n        hostsCount ++;\n        uint end = now + _biddingTime * 1 minutes;\n        hosts[hostsCount] = Host(hostsCount, msg.sender, _title, _description, _reward, end);\n    }\n\n    function getHost(uint _id) public view returns (uint, address, string, string, string) {\n        Host memory host = hosts[_id];\n        return (_id, host.sender, host.title, host.description, host.reward);\n    }\n\n    function getVote(uint _id) public view returns (uint, address, uint, uint) {\n        Vote memory vote = votes[_id];\n        return (_id, vote.sender, vote.value, vote.hostId);\n    }\n\n    // function addVote (string _name) private {\n    //     candidatesCount ++;\n    //     candidates[candidatesCount] = Vote(candidatesCount, _name, 0);\n    // }\n\n    // function vote (uint _candidateId) public {\n    //     //require\n    //     require(!voters[msg.sender]);\n    //     //require\n    //     require(_candidateId > 0 && _candidateId <= candidatesCount);\n    //     //record that voter has voted\n    //     voters[msg.sender] = true;\n    //     //update candidate vote Count\n    //     votes[_candidateId].voteCount ++;\n\n    //     votedEvent(_candidateId);\n    // }\n}",
  "sourcePath": "/Users/kondoumitsurushin/Documents/develop/election/contracts/Election.sol",
  "compiler": {
    "name": "solc",
    "version": "0.4.24+commit.e67f0147.Emscripten.clang"
  },
  "schemaVersion": "2.0.1",
  "updatedAt": "2018-11-25T15:11:15.911Z"
}