{
  "contractName": "Election",
  "abi": [
    {
      "constant": true,
      "inputs": [
        {
          "name": "",
          "type": "uint256"
        }
      ],
      "name": "hosts",
      "outputs": [
        {
          "name": "id",
          "type": "uint256"
        },
        {
          "name": "sender",
          "type": "address"
        },
        {
          "name": "title",
          "type": "string"
        },
        {
          "name": "description",
          "type": "string"
        },
        {
          "name": "reward",
          "type": "string"
        },
        {
          "name": "end",
          "type": "uint256"
        },
        {
          "name": "minValue",
          "type": "uint256"
        },
        {
          "name": "maxValue",
          "type": "uint256"
        }
      ],
      "payable": false,
      "stateMutability": "view",
      "type": "function"
    },
    {
      "constant": true,
      "inputs": [
        {
          "name": "",
          "type": "uint256"
        }
      ],
      "name": "votes",
      "outputs": [
        {
          "name": "id",
          "type": "uint256"
        },
        {
          "name": "sender",
          "type": "address"
        },
        {
          "name": "level",
          "type": "uint256"
        },
        {
          "name": "value",
          "type": "uint256"
        },
        {
          "name": "hostId",
          "type": "uint256"
        },
        {
          "name": "when",
          "type": "uint256"
        }
      ],
      "payable": false,
      "stateMutability": "view",
      "type": "function"
    },
    {
      "constant": true,
      "inputs": [],
      "name": "votesCount",
      "outputs": [
        {
          "name": "",
          "type": "uint256"
        }
      ],
      "payable": false,
      "stateMutability": "view",
      "type": "function"
    },
    {
      "constant": true,
      "inputs": [],
      "name": "hostsCount",
      "outputs": [
        {
          "name": "",
          "type": "uint256"
        }
      ],
      "payable": false,
      "stateMutability": "view",
      "type": "function"
    },
    {
      "inputs": [],
      "payable": false,
      "stateMutability": "nonpayable",
      "type": "constructor"
    },
    {
      "constant": false,
      "inputs": [
        {
          "name": "_level",
          "type": "uint256"
        },
        {
          "name": "_value",
          "type": "uint256"
        },
        {
          "name": "_hostId",
          "type": "uint256"
        }
      ],
      "name": "vote",
      "outputs": [],
      "payable": false,
      "stateMutability": "nonpayable",
      "type": "function"
    },
    {
      "constant": false,
      "inputs": [
        {
          "name": "_title",
          "type": "string"
        },
        {
          "name": "_description",
          "type": "string"
        },
        {
          "name": "_reward",
          "type": "string"
        },
        {
          "name": "_biddingTime",
          "type": "uint256"
        },
        {
          "name": "_minValue",
          "type": "uint256"
        },
        {
          "name": "_maxValue",
          "type": "uint256"
        }
      ],
      "name": "host",
      "outputs": [],
      "payable": false,
      "stateMutability": "nonpayable",
      "type": "function"
    },
    {
      "constant": true,
      "inputs": [
        {
          "name": "_id",
          "type": "uint256"
        }
      ],
      "name": "getVote",
      "outputs": [
        {
          "name": "",
          "type": "uint256"
        },
        {
          "name": "",
          "type": "address"
        },
        {
          "name": "",
          "type": "uint256"
        },
        {
          "name": "",
          "type": "uint256"
        },
        {
          "name": "",
          "type": "uint256"
        },
        {
          "name": "",
          "type": "uint256"
        }
      ],
      "payable": false,
      "stateMutability": "view",
      "type": "function"
    }
  ],
  "bytecode": "0x608060405234801561001057600080fd5b506100f96040805190810160405280600c81526020017fe887aae58b95e7949fe688900000000000000000000000000000000000000000815250606060405190810160405280603381526020017fe38193e381aee59586e59381e381aee99c80e8a681e9878fe38292e4ba88e6b881526020017face38197e381a6e3818fe381a0e38195e38184000000000000000000000000008152506040805190810160405280601081526020017fe5a0b1e985ace382bfe382a4e38397410000000000000000000000000000000081525061271060646127106100fe640100000000026401000000009004565b6102f6565b600060036000815480929190600101919050555083420190506101006040519081016040528060035481526020013373ffffffffffffffffffffffffffffffffffffffff168152602001888152602001878152602001868152602001828152602001848152602001838152506001600060035481526020019081526020016000206000820151816000015560208201518160010160006101000a81548173ffffffffffffffffffffffffffffffffffffffff021916908373ffffffffffffffffffffffffffffffffffffffff16021790555060408201518160020190805190602001906101ec929190610251565b506060820151816003019080519060200190610209929190610251565b506080820151816004019080519060200190610226929190610251565b5060a0820151816005015560c0820151816006015560e0820151816007015590505050505050505050565b828054600181600116156101000203166002900490600052602060002090601f016020900481019282601f1061029257805160ff19168380011785556102c0565b828001600101855582156102c0579182015b828111156102bf5782518255916020019190600101906102a4565b5b5090506102cd91906102d1565b5090565b6102f391905b808211156102ef5760008160009055506001016102d7565b5090565b90565b610c0e80620003066000396000f300608060405260043610610083576000357c0100000000000000000000000000000000000000000000000000000000900463ffffffff1680633735b3c6146100885780635a55c1f0146102555780635df81330146102e55780638778b27d146103755780638a6655d6146103a0578063dcb4c87b146103e1578063eed8de6c146104f4575b600080fd5b34801561009457600080fd5b506100b36004803603810190808035906020019092919050505061051f565b604051808981526020018873ffffffffffffffffffffffffffffffffffffffff1673ffffffffffffffffffffffffffffffffffffffff16815260200180602001806020018060200187815260200186815260200185815260200184810384528a818151815260200191508051906020019080838360005b8381101561014557808201518184015260208101905061012a565b50505050905090810190601f1680156101725780820380516001836020036101000a031916815260200191505b50848103835289818151815260200191508051906020019080838360005b838110156101ab578082015181840152602081019050610190565b50505050905090810190601f1680156101d85780820380516001836020036101000a031916815260200191505b50848103825288818151815260200191508051906020019080838360005b838110156102115780820151818401526020810190506101f6565b50505050905090810190601f16801561023e5780820380516001836020036101000a031916815260200191505b509b50505050505050505050505060405180910390f35b34801561026157600080fd5b506102806004803603810190808035906020019092919050505061074f565b604051808781526020018673ffffffffffffffffffffffffffffffffffffffff1673ffffffffffffffffffffffffffffffffffffffff168152602001858152602001848152602001838152602001828152602001965050505050505060405180910390f35b3480156102f157600080fd5b5061031060048036038101908080359060200190929190505050610838565b604051808781526020018673ffffffffffffffffffffffffffffffffffffffff1673ffffffffffffffffffffffffffffffffffffffff168152602001858152602001848152602001838152602001828152602001965050505050505060405180910390f35b34801561038157600080fd5b5061038a610894565b6040518082815260200191505060405180910390f35b3480156103ac57600080fd5b506103df60048036038101908080359060200190929190803590602001909291908035906020019092919050505061089a565b005b3480156103ed57600080fd5b506104f2600480360381019080803590602001908201803590602001908080601f0160208091040260200160405190810160405280939291908181526020018383808284378201915050505050509192919290803590602001908201803590602001908080601f0160208091040260200160405190810160405280939291908181526020018383808284378201915050505050509192919290803590602001908201803590602001908080601f0160208091040260200160405190810160405280939291908181526020018383808284378201915050505050509192919290803590602001909291908035906020019092919080359060200190929190505050610997565b005b34801561050057600080fd5b50610509610aea565b6040518082815260200191505060405180910390f35b60016020528060005260406000206000915090508060000154908060010160009054906101000a900473ffffffffffffffffffffffffffffffffffffffff1690806002018054600181600116156101000203166002900480601f0160208091040260200160405190810160405280929190818152602001828054600181600116156101000203166002900480156105f75780601f106105cc576101008083540402835291602001916105f7565b820191906000526020600020905b8154815290600101906020018083116105da57829003601f168201915b505050505090806003018054600181600116156101000203166002900480601f0160208091040260200160405190810160405280929190818152602001828054600181600116156101000203166002900480156106955780601f1061066a57610100808354040283529160200191610695565b820191906000526020600020905b81548152906001019060200180831161067857829003601f168201915b505050505090806004018054600181600116156101000203166002900480601f0160208091040260200160405190810160405280929190818152602001828054600181600116156101000203166002900480156107335780601f1061070857610100808354040283529160200191610733565b820191906000526020600020905b81548152906001019060200180831161071657829003601f168201915b5050505050908060050154908060060154908060070154905088565b600080600080600080610760610af0565b60008089815260200190815260200160002060c06040519081016040529081600082015481526020016001820160009054906101000a900473ffffffffffffffffffffffffffffffffffffffff1673ffffffffffffffffffffffffffffffffffffffff1673ffffffffffffffffffffffffffffffffffffffff16815260200160028201548152602001600382015481526020016004820154815260200160058201548152505090508781602001518260400151836060015184608001518560a001519650965096509650965096505091939550919395565b60006020528060005260406000206000915090508060000154908060010160009054906101000a900473ffffffffffffffffffffffffffffffffffffffff16908060020154908060030154908060040154908060050154905086565b60025481565b600082141515156108aa57600080fd5b60026000815480929190600101919050555060c06040519081016040528060025481526020013373ffffffffffffffffffffffffffffffffffffffff1681526020018481526020018381526020018281526020014281525060008060025481526020019081526020016000206000820151816000015560208201518160010160006101000a81548173ffffffffffffffffffffffffffffffffffffffff021916908373ffffffffffffffffffffffffffffffffffffffff16021790555060408201518160020155606082015181600301556080820151816004015560a08201518160050155905050505050565b600060036000815480929190600101919050555083420190506101006040519081016040528060035481526020013373ffffffffffffffffffffffffffffffffffffffff168152602001888152602001878152602001868152602001828152602001848152602001838152506001600060035481526020019081526020016000206000820151816000015560208201518160010160006101000a81548173ffffffffffffffffffffffffffffffffffffffff021916908373ffffffffffffffffffffffffffffffffffffffff1602179055506040820151816002019080519060200190610a85929190610b3d565b506060820151816003019080519060200190610aa2929190610b3d565b506080820151816004019080519060200190610abf929190610b3d565b5060a0820151816005015560c0820151816006015560e0820151816007015590505050505050505050565b60035481565b60c06040519081016040528060008152602001600073ffffffffffffffffffffffffffffffffffffffff168152602001600081526020016000815260200160008152602001600081525090565b828054600181600116156101000203166002900490600052602060002090601f016020900481019282601f10610b7e57805160ff1916838001178555610bac565b82800160010185558215610bac579182015b82811115610bab578251825591602001919060010190610b90565b5b509050610bb99190610bbd565b5090565b610bdf91905b80821115610bdb576000816000905550600101610bc3565b5090565b905600a165627a7a72305820e9ebc8c23ecb9793fea1ac58fadb4b35b95b49333d5d30296845158a6a3ba04a0029",
  "source": "pragma solidity ^0.4.24;\n\ncontract Election {\n\n    struct Vote {\n        uint id;\n        address sender;\n        uint level;\n        uint value;\n        uint hostId;\n        uint when;\n    }\n\n    struct Host {\n        uint id;\n        address sender;\n        string title;\n        string description;\n        string reward;\n        uint end;\n        uint minValue;\n        uint maxValue;\n    }\n\n    mapping(uint => Vote) public votes;\n\n    mapping(uint => Host) public hosts;\n\n    uint public votesCount;\n\n    uint public hostsCount;\n\n    constructor() public {\n        host(\"自動生成\", \"この商品の需要量を予測してください\", \"報酬タイプA\", 10000, 100, 10000);\n    }\n\n    function vote(uint _level, uint _value, uint _hostId) public {\n        require(_value != 0);\n        votesCount ++;\n        votes[votesCount] = Vote(votesCount, msg.sender, _level, _value, _hostId, block.timestamp);\n    }\n\n    function host(string memory _title, string memory _description, string memory _reward, uint _biddingTime, uint _minValue, uint _maxValue) public {\n        hostsCount ++;\n        uint end = now + _biddingTime;\n        hosts[hostsCount] = Host(hostsCount, msg.sender, _title, _description, _reward, end, _minValue, _maxValue);\n    }\n\n    function getVote(uint _id) public view returns (uint, address, uint, uint, uint, uint) {\n        Vote memory vote = votes[_id];\n        return (_id, vote.sender, vote.level, vote.value, vote.hostId, vote.when);\n    }\n\n    // function getHost(uint _id) public view returns (uint, address, string, string, string, uint) {\n    //     Host memory host = hosts[_id];\n    //     return (_id, host.sender, host.title, host.description, host.reward, host.end);\n    // }\n\n    // function addVote (string _name) private {\n    //     candidatesCount ++;\n    //     candidates[candidatesCount] = Vote(candidatesCount, _name, 0);\n    // }\n\n    // function vote (uint _candidateId) public {\n    //     //require\n    //     require(!voters[msg.sender]);\n    //     //require\n    //     require(_candidateId > 0 && _candidateId <= candidatesCount);\n    //     //record that voter has voted\n    //     voters[msg.sender] = true;\n    //     //update candidate vote Count\n    //     votes[_candidateId].voteCount ++;\n\n    //     votedEvent(_candidateId);\n    // }\n}",
  "sourcePath": "/Users/kondoumitsurushin/Documents/develop/election/contracts/Election.sol",
  "compiler": {
    "name": "solc",
    "version": "0.4.24+commit.e67f0147.Emscripten.clang"
  },
  "schemaVersion": "2.0.1",
  "updatedAt": "2018-12-14T11:06:34.290Z"
}