{
  "contractName": "Election",
  "abi": [
    {
      "constant": true,
      "inputs": [
        {
          "name": "",
          "type": "uint256"
        }
      ],
      "name": "hosts",
      "outputs": [
        {
          "name": "id",
          "type": "uint256"
        },
        {
          "name": "title",
          "type": "string"
        },
        {
          "name": "hostDescription",
          "type": "string"
        },
        {
          "name": "hostsCount",
          "type": "uint256"
        }
      ],
      "payable": false,
      "stateMutability": "view",
      "type": "function"
    },
    {
      "constant": true,
      "inputs": [
        {
          "name": "",
          "type": "uint256"
        }
      ],
      "name": "votes",
      "outputs": [
        {
          "name": "sender",
          "type": "address"
        },
        {
          "name": "value",
          "type": "uint256"
        },
        {
          "name": "hostId",
          "type": "uint256"
        }
      ],
      "payable": false,
      "stateMutability": "view",
      "type": "function"
    },
    {
      "constant": true,
      "inputs": [
        {
          "name": "",
          "type": "address"
        }
      ],
      "name": "voters",
      "outputs": [
        {
          "name": "",
          "type": "bool"
        }
      ],
      "payable": false,
      "stateMutability": "view",
      "type": "function"
    },
    {
      "constant": true,
      "inputs": [],
      "name": "hostsCount",
      "outputs": [
        {
          "name": "",
          "type": "uint256"
        }
      ],
      "payable": false,
      "stateMutability": "view",
      "type": "function"
    },
    {
      "inputs": [],
      "payable": false,
      "stateMutability": "nonpayable",
      "type": "constructor"
    },
    {
      "anonymous": false,
      "inputs": [
        {
          "indexed": false,
          "name": "indexed_voteId",
          "type": "uint256"
        }
      ],
      "name": "votedEvent",
      "type": "event"
    },
    {
      "constant": false,
      "inputs": [
        {
          "name": "_value",
          "type": "uint256"
        },
        {
          "name": "_hostId",
          "type": "uint256"
        }
      ],
      "name": "vote",
      "outputs": [
        {
          "name": "",
          "type": "uint256"
        }
      ],
      "payable": false,
      "stateMutability": "nonpayable",
      "type": "function"
    },
    {
      "constant": true,
      "inputs": [],
      "name": "getVotes",
      "outputs": [
        {
          "name": "",
          "type": "uint256[20]"
        }
      ],
      "payable": false,
      "stateMutability": "view",
      "type": "function"
    }
  ],
  "bytecode": "0x608060405234801561001057600080fd5b506000606060405190810160405280600073ffffffffffffffffffffffffffffffffffffffff1681526020016000815260200160018152509080600181540180825580915050906001820390600052602060002090600302016000909192909190915060008201518160000160006101000a81548173ffffffffffffffffffffffffffffffffffffffff021916908373ffffffffffffffffffffffffffffffffffffffff1602179055506020820151816001015560408201518160020155505050610145606060405190810160405280603381526020017fe38193e381aee59586e59381e381aee99c80e8a681e9878fe38292e4ba88e6b881526020017face38197e381a6e3818fe381a0e38195e381840000000000000000000000000081525061014a640100000000026401000000009004565b61029f565b60036000815480929190600101919050555060806040519081016040528060035481526020016020604051908101604052806000815250815260200182815260200160008152506002600060035481526020019081526020016000206000820151816000015560208201518160010190805190602001906101cc9291906101fa565b5060408201518160020190805190602001906101e99291906101fa565b506060820151816003015590505050565b828054600181600116156101000203166002900490600052602060002090601f016020900481019282601f1061023b57805160ff1916838001178555610269565b82800160010185558215610269579182015b8281111561026857825182559160200191906001019061024d565b5b509050610276919061027a565b5090565b61029c91905b80821115610298576000816000905550600101610280565b5090565b90565b6106c7806102ae6000396000f300608060405260043610610078576000357c0100000000000000000000000000000000000000000000000000000000900463ffffffff1680630dc960151461007d5780633735b3c6146100d05780635df81330146101f0578063a3ec138d1461026b578063b384abef146102c6578063eed8de6c14610311575b600080fd5b34801561008957600080fd5b5061009261033c565b6040518082601460200280838360005b838110156100bd5780820151818401526020810190506100a2565b5050505090500191505060405180910390f35b3480156100dc57600080fd5b506100fb600480360381019080803590602001909291905050506103ba565b604051808581526020018060200180602001848152602001838103835286818151815260200191508051906020019080838360005b8381101561014b578082015181840152602081019050610130565b50505050905090810190601f1680156101785780820380516001836020036101000a031916815260200191505b50838103825285818151815260200191508051906020019080838360005b838110156101b1578082015181840152602081019050610196565b50505050905090810190601f1680156101de5780820380516001836020036101000a031916815260200191505b50965050505050505060405180910390f35b3480156101fc57600080fd5b5061021b6004803603810190808035906020019092919050505061051a565b604051808473ffffffffffffffffffffffffffffffffffffffff1673ffffffffffffffffffffffffffffffffffffffff168152602001838152602001828152602001935050505060405180910390f35b34801561027757600080fd5b506102ac600480360381019080803573ffffffffffffffffffffffffffffffffffffffff169060200190929190505050610573565b604051808215151515815260200191505060405180910390f35b3480156102d257600080fd5b506102fb6004803603810190808035906020019092919080359060200190929190505050610593565b6040518082815260200191505060405180910390f35b34801561031d57600080fd5b50610326610671565b6040518082815260200191505060405180910390f35b610344610677565b61034c610677565b600080600060146000805490501161036c5760016000805490500361036f565b60145b9250600091505b828210156103b0578160016000805490500303905080848360148110151561039a57fe5b6020020181815250508180600101925050610376565b8394505050505090565b6002602052806000526040600020600091509050806000015490806001018054600181600116156101000203166002900480601f01602080910402602001604051908101604052809291908181526020018280546001816001161561010002031660029004801561046c5780601f106104415761010080835404028352916020019161046c565b820191906000526020600020905b81548152906001019060200180831161044f57829003601f168201915b505050505090806002018054600181600116156101000203166002900480601f01602080910402602001604051908101604052809291908181526020018280546001816001161561010002031660029004801561050a5780601f106104df5761010080835404028352916020019161050a565b820191906000526020600020905b8154815290600101906020018083116104ed57829003601f168201915b5050505050908060030154905084565b60008181548110151561052957fe5b90600052602060002090600302016000915090508060000160009054906101000a900473ffffffffffffffffffffffffffffffffffffffff16908060010154908060020154905083565b60016020528060005260406000206000915054906101000a900460ff1681565b600080600084141515156105a657600080fd5b600160006060604051908101604052803373ffffffffffffffffffffffffffffffffffffffff168152602001878152602001868152509080600181540180825580915050906001820390600052602060002090600302016000909192909190915060008201518160000160006101000a81548173ffffffffffffffffffffffffffffffffffffffff021916908373ffffffffffffffffffffffffffffffffffffffff160217905550602082015181600101556040820151816002015550500390508091505092915050565b60035481565b610280604051908101604052806014906020820280388339808201915050905050905600a165627a7a72305820b766aa8b518cdf1e0b65b4bad060ae0ce31dfbd4b5905d074368a80051e37a1e0029",
  "source": "pragma solidity ^0.4.24;\n\ncontract Election {\n\n    struct Vote {\n        address sender;\n        uint value;\n        uint hostId;\n    }\n\n    struct Host {\n        uint id;\n        string title;\n        string hostDescription;\n        uint hostsCount;\n    }\n\n    Vote[] public votes;\n    \n    mapping(address => bool) public voters;\n\n    //mapping(uint => Vote) public votes;\n    mapping(uint => Host) public hosts;\n\n    // uint public candidatesCount;\n    uint public hostsCount;\n\n    event votedEvent (\n        uint indexed_voteId\n    );\n\n    constructor() public {\n        votes.push(Vote(0, 0, 1));\n        addHost(\"この商品の需要量を予測してください\");\n    }\n\n    function vote(uint _value, uint _hostId) public returns(uint) {\n        require(_value != 0);\n        uint id = votes.push(Vote(msg.sender, _value, _hostId))-1;\n        return id;\n    }\n\n    function getVotes() external view returns (uint[20]) {\n        uint[20] memory results;\n        uint max = votes.length > 20 ? 20 : votes.length - 1;\n        for (uint i=0; i<max; i++) {\n            uint voteId = votes.length - 1 - i;\n            results[i] = voteId;\n        }\n        return results;\n    }\n\n    function addHost (string _description) private {\n        hostsCount ++;\n        hosts[hostsCount] = Host(hostsCount, \"\", _description, 0);\n    }\n\n    // function addVote (string _name) private {\n    //     candidatesCount ++;\n    //     candidates[candidatesCount] = Vote(candidatesCount, _name, 0);\n    // }\n\n    // function vote (uint _candidateId) public {\n    //     //require\n    //     require(!voters[msg.sender]);\n    //     //require\n    //     require(_candidateId > 0 && _candidateId <= candidatesCount);\n    //     //record that voter has voted\n    //     voters[msg.sender] = true;\n    //     //update candidate vote Count\n    //     votes[_candidateId].voteCount ++;\n\n    //     votedEvent(_candidateId);\n    // }\n}",
  "sourcePath": "/Users/kondoumitsurushin/Documents/develop/election/contracts/Election.sol",
  "compiler": {
    "name": "solc",
    "version": "0.4.24+commit.e67f0147.Emscripten.clang"
  },
  "schemaVersion": "2.0.1",
  "updatedAt": "2018-11-21T04:09:56.631Z"
}